:020000040801F1
:10000000000002202D1F0208BD7901089D7901081A
:10001000DD790108FD7901081D7A01080000000062
:100020000000000000000000000000004D28020851
:100030008D1F0208000000002D2A0208852A0208F0
:100040008D1F02088D1F02088D1F02088D1F0208D8
:100050008D1F02088D1F02084DB5010859B5010812
:1000600065B5010871B501087DB50108DD5C0208C0
:10007000215D0208655D0208A95D0208ED5D0208C8
:10008000315E0208755E0208BDB101088D1F0208CD
:100090004DB201088D1F02088D1F020889B50108A5
:1000A0008D1F02088D1F02088D1F02088D1F020878
:1000B0008D1F0208E1630208F5630208C9C901083F
:1000C000D5C90108B1C90108BDC901088D1F0208C1
:1000D0008D1F020889E5010865E5010859E5010859
:1000E000ADB501088D1F02088D1F02088D1F020883
:1000F000CD6302088D1F02088D1F0208B95E020839
:100100008D1F02088D1F0208B96302088D1F0208A7
:100110008D1F020871E5010809640208D5D50108A0
:10012000FD5E0208415F0208855F0208C95F0208A0
:100130000D6002088D1F02088D1F02088D1F020826
:100140008D1F02088D1F02088D1F02088D1F0208D7
:100150005160020895600208D96002087DE5010837
:10016000E1C90108EDC901088D1F02088D1F0208B1
:100170008D1F02088D1F02088D1F02088D1F0208A7
:100180008D1F02088D1F0208EFBEADDE10B5054CB5
:10019000237833B9044B13B10448AFF30080012333
:1001A000237010BD280C002000000000F885030813
:1001B000084B10B51BB108490848AFF30080084848
:1001C000036803B910BD074B002BFBD0BDE81040FE
:1001D000184700BF000000002C0C0020F885030821
:1001E000240C00200000000070B50F4E0F4D761B50
:1001F000B61018BF002405D0013455F8043B9847C9
:10020000A642F9D10A4E0B4D761B22F019FFB6100B
:1002100018BF002406D0013455F8043B9847A64285
:10022000F9D170BD70BD00BFDC0B0020DC0B0020DD
:10023000200C0020DC0B002070B4840746D0541E34
:10024000002A41D0CDB2034602E0621EE4B3144658
:1002500003F8015B9A07F8D1032C2ED9CDB245EAF9
:1002600005250F2C45EA054519D903F1100226464C
:10027000103E0F2E42F8105C42F80C5C42F8085C0D
:1002800042F8045C02F11002F2D8A4F1100222F04C
:100290000F0204F00F041032032C13440DD91E4634
:1002A0002246043A032A46F8045BFAD8221F22F0B9
:1002B00003020432134404F003042CB1C9B21C44F9
:1002C00003F8011BA342FBD170BC704714460346E0
:1002D000C2E700BF024B13B1024800F005B87047F7
:1002E00000000000F5020108002301461A461846E6
:1002F00000F014B838B5074D074C2C1BA41005D0DE
:10030000013C55F8043D9847002CF9D1BDE8384030
:1003100022F09CBE240C0020200C00202DE9F04788
:10032000254C2568D5F848410646884692469946A8
:10033000C4B360681F2817DC431C76B104EB80054A
:100340000122C5F888A0D4F8881182401143022EFA
:10035000C4F88811C5F808911ED00230636044F8D3
:1003600020800020BDE8F087144B03B34FF4C87021
:100370001FF07EFE0446D0B1D5F84831002780E852
:100380008800C5F8484138460123C4F88871C4F88C
:100390008C71002EE1D0D1E7D4F88C110A43C4F857
:1003A0008C21DAE705F5A674C5F84841C1E74FF09E
:1003B000FF30BDE8F08700BF583003087100030824
:1003C00080B485B000AFF860B9607A603B607B684C
:1003D00018461437BD465DF8047B704780B485B07D
:1003E00000AFF860B9607A603B60002318461437AC
:1003F000BD465DF8047B704780B500AF41F28830A0
:100400000FF09CFB0249034801F02CF800BF80BDAF
:10041000F8140020B00D002080B500AFFFF7ECFF0E
:10042000084805F0EDFE084807F0DCFD0FF0B0FBD2
:1004300003461946054806F0B1F94FF4FA700FF07B
:100440007DFBF0E750160020381600205C300308D2
:1004500080B483B000AF786039603B6818460C37D1
:10046000BD465DF8047B704780B483B000AF786010
:100470007B6818460C37BD465DF8047B704700BFAB
:1004800080B483B000AF78607B6818460C37BD46F7
:100490005DF8047B704700BF80B483B000AF786024
:1004A0007B6800229A607B6818460C37BD465DF871
:1004B000047B704780B582B000AF78607B689B6832
:1004C000002B07D07B689B6879687A6808461146DC
:1004D000032298477B6818460837BD4680BD00BF99
:1004E00080B582B000AF78607B681846FFF7E2FF06
:1004F0007B6818460837BD4680BD00BF80B483B016
:1005000000AF78607B68044A1A607B6818460C3735
:10051000BD465DF8047B7047A838030880B582B0FB
:1005200000AF78607B681B6808331B687868984761
:10053000034618460837BD4680BD00BF80B582B06F
:1005400000AF786039607B681B680C331B68786883
:1005500039689847034618460837BD4680BD00BF36
:1005600080B582B000AF786039607B683A681A6005
:1005700038684FF0FF31FFF7E1FF7B681846083716
:10058000BD4680BD80B582B000AF78607B681B68D7
:100590001846FFF7C3FF7B6818460837BD4680BD85
:1005A00080B582B000AF78607B68184601210EF0FC
:1005B000ADFF7B68034A1A607B6818460837BD4662
:1005C00080BD00BF9033030880B582B000AF786073
:1005D0007B68084A1A607B6818460EF0D5FF002336
:1005E000002B02D0786816F035F87B68184608377B
:1005F000BD4680BD9033030880B582B000AF7860FF
:100600007868FFF7E1FF786816F024F87B681846F1
:100610000837BD4680BD00BF80B582B000AF7860AE
:100620007B68084A1A607B6818460EF0ADFF00230D
:10063000002B02D0786816F00DF87B681846083752
:10064000BD4680BD7833030880B582B000AF7860C6
:100650007868FFF7E1FF786815F0FCFF7B681846C3
:100660000837BD4680BD00BF80B582B000AF78605E
:100670007B68064A1A600023002B02D0786815F0C8
:10068000E9FF7B6818460837BD4680BD583303082C
:1006900080B582B000AF78607868FFF7E5FF7868D2
:1006A00015F0D8FF7B6818460837BD4680BD00BFEF
:1006B00080B582B000AF786039603B68002B03D111
:1006C0007B6800221A7005E07B68184639681E2294
:1006D00021F074F87B6818460837BD4680BD00BF1E
:1006E00084B080B500AF07F1080E8EE80F0007F167
:1006F000280307F10800194620F036FC0346002BBA
:100700000CBF01230023DBB21846BD46BDE8804084
:1007100004B0704784B0B0B483B000AF786007F124
:100720001C0080E80E007B68094A1A607B681C1D6B
:1007300007F11C050FCD0FC495E80F0007C42380F7
:100740007B6818460C37BD46B0BC04B0704700BF8C
:1007500030330308F0B591B006AF78607E6807F1DA
:10076000080318460B49FFF7A3FF6D4607F1140471
:100770000FCC0FC523682B8007F108030ECB304642
:10078000FFF7C8FF7B68044A1A607B6818462C375D
:10079000BD46F0BD80300308B833030880B582B091
:1007A00000AF78607B680C331846FFF735FF7B6835
:1007B0001846FFF731FF7B6818460837BD4680BDF5
:1007C00080B582B000AF786039607B683A681A60A3
:1007D0007B680433184600210EF098FE7B681033C6
:1007E000184600210EF092FE7B681C33184600214B
:1007F0000EF08CFE7B68283318460FF075FA7B6884
:100800000022A3F8642005F00BFC03469AB27B6833
:10081000A3F86E207B680022C3F89C207B6800222E
:10082000C3F8A0207B680022C3F8A4207B680022C4
:10083000C3F8A8207B680022C3F8B0207B680022A0
:10084000C3F8AC207B680022C3F8B4207B68002288
:10085000C3F88C207B68D3F88C207B68C3F8882091
:100860007B68D3F888207B68C3F884207B680022EB
:10087000C3F898207B68D3F898207B68C3F894204D
:100880007B68D3F894207B68C3F890207B68184677
:100890000837BD4680BD00BF80B483B000AF78602C
:1008A00039607B683A681A660C37BD465DF8047B90
:1008B000704700BF80B485B000AFF860B9607A605F
:1008C0003B60FB68BA689A64FB687A681A65FB68E3
:1008D0003A689A671437BD465DF8047B704700BFDD
:1008E00080B485B000AFF860B9607A60FB68BA6820
:1008F0001A60FB687A685A60FB6818461437BD4670
:100900005DF8047B704700BF80B483B000AF7860AF
:100910007B6800221A607B6800225A607B68002294
:100920009A607B680022DA607B6818460C37BD4607
:100930005DF8047B704700BF80B485B000AFF860FD
:10094000B9607A60FB6800221A60FB68BA685A6076
:10095000FB687A689A60FB680022DA60FB681846D8
:100960001437BD465DF8047B704700BF80B483B088
:1009700000AF78607B68044A1A607B6818460C37C1
:10098000BD465DF8047B70475833030880B582B0DC
:1009900000AF786039607B681846FFF7E7FF094AC7
:1009A0007B681A6000227B681344064A1A607B68E1
:1009B0003A685A607B6800229A607B68184608375C
:1009C000BD4680BDE032030880B586B000AFF86058
:1009D000B9607A603B60BB687B61FB685868FB6804
:1009E0009B681A467B699918FB689B687A68D31ADA
:1009F0001A463B6802F01AFE38613B6913F1040F96
:100A000004D1FB6800229A6000231AE03B6913F1CD
:100A1000050F02D1FB689B6813E03B69002B0FDDDB
:100A2000FB689A683B691A44FB689A60FB689A689D
:100A30007B689A4202D1FB6800229A60002300E0A2
:100A4000002318461837BD4680BD00BF80B584B06E
:100A500000AFF860B9607A603B60FB681B68103BD0
:100A60001B681A46FB6813441846B9687A683B68E5
:100A7000FFF7AAFF034618461037BD4680BD00BFEA
:100A800080B582B000AF78607B685B68184602F082
:100A9000B9FB012318460837BD4680BD80B582B03A
:100AA00000AF78607B681B68143B1B681A467B6844
:100AB00013441846FFF7E4FF034618460837BD46BF
:100AC00080BD00BF80B584B000AFF860B9607A60C7
:100AD000FB685B681846B9687A6802F0BDFB03469C
:100AE000002B14BF01230023DBB218461037BD468C
:100AF00080BD00BF80B584B000AFF860B9607A6097
:100B0000FB681B68183B1B681A46FB6813441846B1
:100B1000B9687A68FFF7D6FF034618461037BD4616
:100B200080BD00BF80B582B000AF78607B685B6835
:100B3000184602F0CBFB0346002B14BF0123002311
:100B4000DBB218460837BD4680BD00BF80B582B015
:100B500000AF78607B681B681C3B1B681A467B688B
:100B600013441846FFF7DEFF034618460837BD4614
:100B700080BD00BF90B587B000AFF860B9607A6003
:100B80003B60FB685B681B6804331C68FB685A6841
:100B90003B681046B9687A68A04778617B69184657
:100BA0001C37BD4690BD00BF80B584B000AFF86073
:100BB000B9607A603B60FB681B680C3B1B681A4697
:100BC000FB6813441846B9687A683B68FFF7D2FFA0
:100BD000034618461037BD4680BD00BF90B587B0AC
:100BE00000AFF860B9607A603B600D4B1B7883F012
:100BF0000103DBB2002B01D000230DE0FB685B6832
:100C00001B681C68FB685B681846B9687A684FF413
:100C10007A73A04778617B6918461C37BD4690BD42
:100C2000640C002080B584B000AFF860B9607A60D1
:100C30003B60FB681B68103B1B681A46FB6813444B
:100C40001846B9687A683B68FFF7C8FF034618463C
:100C50001037BD4680BD00BF80B483B000AF786060
:100C60007B68044A1A607B6818460C37BD465DF8FD
:100C7000047B70470833030880B582B000AF78600A
:100C80007B681846FFF7E8FF064A7B681A60002277
:100C90007B681344034A1A607B6818460837BD46D0
:100CA00080BD00BFAC32030880B582B000AF786071
:100CB000786800218022FFF7BFFA0837BD4680BD63
:100CC000B0B5A0B00CAF03463960FB713B68DB6880
:100CD00007F110041D4628686968AA68EB680FC40C
:100CE00028696969AA6907C4AB8B238007F13003BF
:100CF00018462049FFF7DCFC04AC07F130050FCDA6
:100D00000FC495E80F0007C423806C4607F1200349
:100D10000FCB07C4238007F110030FCBFFF7E0FCD4
:100D20000346002B0BD0FB7987F84F3007F14F03B8
:100D3000114819464FF0FF3200F0E4FD16E00F4B6A
:100D40005B69002B12D00023BB81FB793B730B4BFB
:100D50005D6907F10C0304936C4607F120030FCB88
:100D600007C4238007F110030FCBA8475037BD46B7
:100D7000B0BD00BF88300308440C0020B00D002037
:100D8000B0B5E8B006AF07F10C03186007F108032F
:100D9000196007F10803C848196805F061FA07F1FE
:100DA0004C031A464023104600211A46FFF744FA26
:100DB00007F18C03402218460021FFF73DFA07F1A6
:100DC0001003184600213C22FFF736FA402407F5AD
:100DD000AE7207F14C03104619462246FFF7ACFDF0
:100DE00007F110043A4607F5AE731046194601F0B4
:100DF0000FFD3A4604F1240392E8030083E8030060
:100E0000402407F5A67207F18C03104619462246C6
:100E1000FFF792FD07F110043A4607F5A673104656
:100E2000194601F0F5FC3A4604F11C0392E8030070
:100E300083E8030007F59E731846FFF765FD07F189
:100E400008031A6807F5967107F10C03084619683C
:100E500003F0B2FC07F5967207F1100310469749AC
:100E60001A4604F061FB034687F8873197F887310B
:100E700083F00103DBB2002B0CD0D7F83831002B04
:100E800002D0D7F8383100E08D4B8E48194605F076
:100E9000E7F90CE107F5867207F14C031046194695
:100EA000FFF706FC07F110031B788748194605F089
:100EB000D7F907F110031B78032B5AD0032B06DC5C
:100EC000012B13D0012B27DC002B08D0EAE0652B87
:100ED00000F0EC80682B7ED0042B36D0E2E07B481B
:100EE00005F0BEF9012000F003F9E0E007F110037E
:100EF0001B79C7F8803107F110039B68C7F87C3174
:100F0000734B9B68002B06D0714B9B68D7F8800110
:100F1000D7F87C119847CAE007F110031B79C7F88E
:100F200078316B4BDB68002B0ED0694BDD68D7F84E
:100F3000783104936C4607F58E730FCB07C423807A
:100F400007F586730FCBA847B1E0614B1B69002BF7
:100F50000ED05F4B1D6907F18C0304936C4607F5B7
:100F60008E730FCB07C4238007F586730FCBA8477A
:100F70009DE007F1FC031846FFF7C6FC554BC7F888
:100F8000FC3007F58673C7F8083107F110043A46BC
:100F900007F1FC031046194601F03AFC3A4604F109
:100FA000140392E8030083E8030007F108031A68BA
:100FB00007F1EC0107F10C030846196803F0FCFB8C
:100FC00007F1EC0207F1100310463C491A4604F001
:100FD000ABFA00BF6BE0404B1B68002B03D13F48CE
:100FE00005F03EF95DE04FF48063C7F874314FF4CB
:100FF00080601FF03DF80346C7F8703107F1DC034D
:101000001846D7F870114FF48062FFF795FC07F18E
:1010100010043A4607F1DC031046194601F0F8FBCC
:101020003A4604F1340392E8030083E8030007F131
:1010300008031A6807F1CC0107F10C030846196888
:1010400003F0BAFB07F1CC0207F1100310461B496D
:101050001A4604F069FA034687F86F3197F86F3142
:1010600083F00103DBB2002B03D01D4805F0F8F834
:1010700017E01C48D7F8701105F0F2F8164B1B6802
:101080001B6808331B68144A12681046D7F87011A1
:101090009847154805F0E4F8D7F870011EF0F0FF06
:1010A00000BF04E0114805F0DBF800E000BF07F5E1
:1010B000C477BD46B0BD00BF8C300308D8360308E6
:1010C000B4300308BC300308DC300308F8300308F0
:1010D000B00D0020C10C01083412002014310308A7
:1010E00058310308783103088C3103089C31030818
:1010F00080B5D2B000AF0246FB1D1A7021484FF0F8
:10110000FF310EF09DFA204B1B6807F18802104654
:101110001946FFF7CDFA07F1080207F188031046D8
:1011200000211A4601F088FB07F10803FA1D127826
:1011300083F87D2007F10803184600F075F8134B7B
:101140005B68002B02D0114B5B68984707F59473DE
:1011500018460021FFF7ACFA07F1A80207F59473CF
:10116000104601211A4601F067FB07F1A803184653
:1011700000F05AF803480EF03BFA07F5A477BD4695
:1011800080BD00BF540C002040040020B00D0020A2
:1011900080B584B000AF786039600C4805F060F825
:1011A0000023FB600BE0FB687A681344084819468B
:1011B0004FF0FF3200F0A6FBFB680133FB60FA68DA
:1011C0003B689A42EFDB1037BD4680BDB83103085B
:1011D000480C002080B586B000AFF860B9607A6036
:1011E0007B68B868194601F063F90023FB8210E0C0
:1011F0000C4B1988FB8ABA6813441B7808461946B9
:1012000005F0CEFF03461A46064B1A80FB8A0133CF
:10121000FB82FA8A7B689A42EAD301231846183780
:10122000BD4680BD500C002090B58BB000AF7860FB
:1012300007F1200318463A49FFF792F907F10C032A
:1012400000221A60043300221A60043300221A605C
:10125000043300221A60043300221A60043307F1B9
:101260000C0318462F497A6802F01EFE034687F8E1
:101270002730BB69BB847B681B781A46BB8C2A4825
:1012800011461A4604F0ECFF284B00221A80BB8C52
:101290000020194601F022F907F10C0300221A6020
:1012A000043300221A60043300221A60043300223F
:1012B0001A60043300221A6004331D4BFB6042F2B3
:1012C00010737B6107F10C03184616497A6802F027
:1012D000EBFD034687F8273097F8273083F00103AA
:1012E000DBB2002B0BD0FB69002B01D0FB6900E0C7
:1012F000104B1148194604F0B3FF002405E00B4BD6
:101300001B88184601F00CF9012407F12003184648
:10131000FFF738F9012C00D100BF2C37BD4690BD36
:10132000540C00200C380308CC310308500C00206A
:10133000D5110108B4300308FC31030880B586B02C
:1013400000AFF860B9607A6007F1140318461649D7
:10135000FFF706F9154B00221A80154804F080FFAC
:10136000FB68DAB27B689BB21046194601F0B6F80A
:10137000B868796801F09CF80C4B1B881846B9686E
:101380007A6805F03DFF03461A46084B1A80074B62
:101390001B88184601F0C4F807F114031846FFF73C
:1013A000F1F81837BD4680BD540C0020500C0020C9
:1013B0001C32030880B582B000AF7860396001202C
:1013C00079683A68FFF7BAFF0837BD4680BD00BFAD
:1013D00080B582B000AF78607B6800221A607B68BD
:1013E00000225A607B6800229A607B680022DA60E3
:1013F0007B6800221A617B6814331846FFF7AAF94C
:101400007B6818460837BD4680BD00BF80B582B0F6
:1014100000AF78607B681846FFF770F87B680A4A6F
:101420001A607B6804331846FFF7D2FF7B680022FE
:10143000DA637B6840331846796800F059F97B68B5
:1014400018460837BD4680BD1833030880B582B002
:1014500000AF7860024801F043FC0837BD4680BD0C
:10146000700C002090B58DB000AF7860396007F146
:10147000080318462E49FFF773F82E4804F0F0FED3
:101480002D4B1B78002B07D02C482D4940F22B12F6
:1014900004F01CFF04F08AFF274B01221A70294A2E
:1014A0003B685360284B294A1A6029482D21294A54
:1014B000294BFFF7FFF926482849FFF7EDF907F117
:1014C0000C031846214600F04BFA07F10C031846AE
:1014D00002214FF4C87200230EF036FA07F10C0314
:1014E0001846FEF7FDFF7B68184604F089FE04F0FD
:1014F00097FD02461A4B1A6007F120031846194956
:1015000000F0B8F907F12003184603214FF4FA62FE
:10151000154B0EF019FA07F120031846FEF7E0FF0D
:1015200007F108031846FFF72DF83437BD4690BD84
:10153000540C002040320308F80D002050320308FC
:1015400060320308680C00204C0C0020280D00209D
:10155000700C0020340D0020700D0020AC0D002018
:10156000600C00202D2301087C32030890B5BFB029
:1015700000AF78613961FA6007F1D40318461F495A
:10158000FEF7EEFF07F1180318463969FA6805F00F
:1015900031F807F1D80318460021FFF789F807F161
:1015A000540207F1D803104608211A4601F044F905
:1015B000012387F870303A4607F1180310461946A0
:1015C00001F0D0F807F174033A4692E8030083E88B
:1015D000030007F154031846FFF726FEFC6C07F1E1
:1015E0001803184605F074F807F1D4031846FEF7FF
:1015F000C9FF23461846FC37BD4690BD540C002059
:1016000090B5B3B000AF78613961FA60BB6007F1A3
:10161000A40318461C49FEF7A3FF07F19C031846D4
:10162000F9683A69FFF75CF907F1A8031846002149
:10163000FFF73EF807F11C0207F1A8031046082146
:101640001A4601F0F9F8012387F838303A4607F1D5
:101650009C031046194601F0B7F807F13C033A46DF
:1016600092E8030083E8030007F11C031846FFF724
:10167000DBFDFC6807F1A4031846FEF783FF234651
:101680001846CC37BD4690BD540C002080B586B0BE
:1016900000AFF860B9607A603B60BB683B610023D3
:1016A0007B6113E07B693A691344104819463A6834
:1016B00000F082F9034683F00103DBB2002B00D077
:1016C0000EE000233B607B6901337B617B685A1E1F
:1016D0007A60002B14BF01230023DBB2002BE1D181
:1016E0007B6918461837BD4680BD00BF440C0020FA
:1016F00080B582B000AF786039607B681846FEF72D
:10170000FDFE7B68044A1A607B683A685A607B6811
:1017100018460837BD4680BD4033030880B584B005
:1017200000AFF860B9607A603B60B8687968FFF72D
:1017300041FE7B6818461037BD4680BD80B586B037
:1017400000AFF860B9607A603B60BB683B61002322
:101750007B6113E07B693A691344104819463A6883
:1017600000F02AF9034683F00103DBB2002B00D01E
:101770000EE000233B607B6901337B617B685A1E6E
:101780007A60002B14BF01230023DBB2002BE1D1D0
:101790007B6918461837BD4680BD00BF480C002045
:1017A00090B585B000AFF860B9607A603B60FB68C7
:1017B0001B681B681C68FB681B681846B9687A6858
:1017C0004FF0FF33A0471437BD4690BD90B5A5B08C
:1017D00002AFF860B9607A6007F1800318461849D3
:1017E000FEF7BEFE07F1440207F110043223009316
:1017F0001046B9687A68234604F03EFFFB68C7F8D4
:10180000843007F1440303F1100207F1840310460A
:10181000194600F0FDF807F14403184604F07EFF76
:10182000044607F14403184604F052FF07F1800311
:101830001846FEF7A7FE234618468C37BD4690BDD6
:10184000540C002080B483B000AF78607B681846E9
:101850000C37BD465DF8047B704700BF80B483B091
:1018600000AF78607B6818460C37BD465DF8047B96
:10187000704700BF90B583B000AF7860396078687A
:10188000FFF7E0FF7B681846FEF706FE3B4618466A
:1018900000F0DEF80346002B0FD07C683B4618466C
:1018A000FFF7DCFF03462046194600F0E3F87B68AB
:1018B000044ADA607B68044A9A607B6818460C37F1
:1018C000BD4690BD991A0108B51A010880B483B0CD
:1018D00000AF78607B6818460C37BD465DF8047B26
:1018E000704700BF80B582B000AF786039607B6818
:1018F0001846396801220DF03FFD7B68184608370D
:10190000BD4680BD80B584B000AFF860B9607A6034
:10191000FB681846B9687A680DF06AFD03461846F8
:101920001037BD4680BD00BF80B582B000AF786083
:1019300039607B681846396802220DF01DFD7B680E
:1019400018460837BD4680BD80B483B000AF7860CC
:101950007B6818460C37BD465DF8047B704700BFB6
:1019600090B583B000AF786039707868FFF76AFF90
:101970007B681846FEF790FD3B46184600F0C2F81B
:101980000346002B0FD07C683B461846FFF7DCFF70
:1019900003462046194600F0C1F87B68044ADA6025
:1019A0007B68044A9A607B6818460C37BD4690BD38
:1019B000411B01085D1B010880B584B000AFF860D1
:1019C000B9607A60FB681846B9687A680DF02EFD38
:1019D000034618461037BD4680BD00BF80B483B0B3
:1019E00000AF78607B6818460C37BD465DF8047B15
:1019F000704700BF80B582B000AF78607B68184642
:101A0000FEF758FD7B6818460837BD4680BD00BF0D
:101A100080B586B000AF786039603868FFF7DEFFC8
:101A2000034607F108021046196800F0D7F807F1DD
:101A300008031846796800F0FDF807F10803184616
:101A4000FFF7D8FF7B6818461837BD4680BD00BF3A
:101A500080B483B000AF78607B681B68002B14BF34
:101A600001230023DBB218460C37BD465DF8047B2A
:101A7000704700BF90B585B000AF786039603868B6
:101A8000FFF7ECFE034678681946224600F0F2F8AC
:101A90001437BD4690BD00BF80B582B000AF7860FE
:101AA000786800F001F903461B6898470837BD467F
:101AB00080BD00BFB0B586B000AFF860B960134616
:101AC000FB71FB79022B0DD0032B11D0012B14D10C
:101AD000F86800F0FBF80446B86800F0E5F8034643
:101AE00023600AE0F868B9682A4600F0FBF804E0D1
:101AF000F868214600F010F900BF00231846183797
:101B0000BD46B0BD80B483B000AF786001231846F5
:101B10000C37BD465DF8047B704700BF90B585B0BB
:101B200000AF786039603868FFF70EFF03467868C9
:101B30001946224600F058F91437BD4690BD00BF43
:101B400080B582B000AF7860786800F063F9034632
:101B50001846FFF77BFC0837BD4680BDB0B586B0A0
:101B600000AFF860B9601346FB71FB79022B0DD012
:101B7000032B11D0012B14D1F86800F05BF9044657
:101B8000B86800F047F9034623600AE0F868B968CE
:101B90002A4600F05BF904E0F868214600F06CF991
:101BA00000BF002318461837BD46B0BD80B483B0CF
:101BB00000AF78607B6818460C37BD465DF8047B43
:101BC000704700BF80B483B000AF78607B68184670
:101BD0000C37BD465DF8047B704700BF90B583B0FD
:101BE00000AF786039607868FFF7E0FF7B681846DF
:101BF000FEF752FC3B46184600F04EF90346002B18
:101C00000FD07C683B461846FFF7DCFF03462046B2
:101C1000194600F04DF97B68044ADA607B68044A93
:101C20009A607B6818460C37BD4690BD051F0108B9
:101C3000511F010880B582B000AF786039607A68C2
:101C40003B681046194600F07FF87B6803F10802F4
:101C50003B6808331046194600F0A8F87B6803F18A
:101C60000C023B680C331046194600F0A5F9083702
:101C7000BD4680BD90B585B000AFF860B9603A71DF
:101C8000B868FFF7EBFD03461C68F868FEF7ECFB4D
:101C9000034604201946FEF7DBFB0346002B00D069
:101CA0001C601437BD4690BD80B584B000AF78602D
:101CB000786800F09FF90346184600F0A7F9F8602D
:101CC000FB6818461037BD4680BD00BF80B582B0A6
:101CD00000AF78607868FEF7C7FB03461846083700
:101CE000BD4680BD90B585B000AFF860B9603A716F
:101CF000B86800F07FF903461C68F868FEF7B4FB8B
:101D0000034604201946FEF7A3FB0346002B00D030
:101D10001C601437BD4690BD80B582B000AF7860BE
:101D20003970786800F07EF90837BD4680BD00BF85
:101D300080B483B000AF78607B6818460C37BD462E
:101D40005DF8047B704700BF80B584B000AF786059
:101D500039607868FFF7ECFF024607F1080392E864
:101D6000030083E803003868FFF7E2FF02467B6860
:101D700092E8030083E8030007F108031846FFF721
:101D8000D7FF02463B6892E8030083E80300103760
:101D9000BD4680BD80B483B000AF78607B681846D4
:101DA0000C37BD465DF8047B704700BF80B584B03A
:101DB00000AF786039607868FFF7ECFF03461B6876
:101DC000FB603868FFF7E6FF03461A687B681A6015
:101DD00007F10C031846FFF7DDFF03461A683B685E
:101DE0001A601037BD4680BD90B585B000AFF86071
:101DF000B9603A71B868FFF7A7FD012014F02CFC18
:101E00000446F86800F016F803461C601437BD4617
:101E100090BD00BF80B584B000AF7860786800F0F6
:101E20000DF903461B68FB60FB6818461037BD467A
:101E300080BD00BF80B582B000AF78607868FEF7E3
:101E400013FB034618460837BD4680BD90B585B0E4
:101E500000AFF860B9603A71B86800F0EFF801209F
:101E600014F0FAFB0446F868FFF7E4FF03461C6031
:101E70001437BD4690BD00BF80B582B000AF78601A
:101E800039707868FFF7D6FF03461B68184614F0D0
:101E9000E1FB0837BD4680BD80B483B000AF7860F9
:101EA000012318460C37BD465DF8047B704700BF20
:101EB00090B585B000AF786039603868FFF782FE72
:101EC000034678681946224600F0C4F81437BD4628
:101ED00090BD00BF80B483B000AF78607B681846C7
:101EE0000C37BD465DF8047B704700BF80B483B0FB
:101EF00000AF78607B6818460C37BD465DF8047B00
:101F0000704700BFF0B585B000AFF860B9607A6087
:101F10003B60F86800F0B6F8064607F1080318467B
:101F2000FFF7D8FF03461D683B1D1846FFF7DEFF8D
:101F300003461C683B461846FFF7C8FC03461B686F
:101F4000304629462246FFF72BFC1437BD46F0BD2C
:101F5000B0B586B000AFF860B9601346FB71FB798D
:101F6000022B0DD0032B11D0012B14D1F86800F0F7
:101F700099F80446B86800F085F8034623600AE043
:101F8000F868B9682A4600F099F804E0F868214634
:101F900000F0AEF800BF002318461837BD46B0BDAC
:101FA00080B483B000AF78607B6818460C37BD46BC
:101FB0005DF8047B704700BF80B584B000AF7860E7
:101FC00039607868FFF7ECFF03461B68FB603868F0
:101FD000FFF7E6FF03461A687B681A6007F10C03F7
:101FE0001846FFF7DDFF03461A683B681A60103792
:101FF000BD4680BD80B582B000AF78607868FEF7DE
:102000003FFA034618460837BD4680BD80B483B00A
:1020100000AF78607B6818460C37BD465DF8047BDE
:10202000704700BF80B582B000AF78607868FEF777
:102030001BFA034618460837BD4680BD80B582B0FE
:1020400000AF78607868FEF71BFA03461846083739
:10205000BD4680BDB0B584B000AFF860B9603A71DC
:10206000B868FFF7AFFD0546042014F0F5FA044602
:102070002B682360F86800F015F803461C601037E1
:10208000BD46B0BD80B584B000AF7860786800F020
:102090003FF803461B68FB60FB6818461037BD46D7
:1020A00080BD00BF80B582B000AF78607868FEF771
:1020B000DBF9034618460837BD4680BDB0B584B08D
:1020C00000AFF860B9603A71B86800F021F80346D3
:1020D0001D68042014F0C0FA04462B682360F868D9
:1020E000FFF7E0FF03461C601037BD46B0BD00BFE0
:1020F00080B582B000AF786039707868FFF7D2FFA2
:1021000003461B68184614F0A5FA0837BD4680BD83
:1021100080B582B000AF78607868FEF7B1F9034609
:1021200018460837BD4680BD80B582B000AF7860E4
:102130000C4A7B681A6000227B681344094A1A60C3
:102140000223002B03D07B681846FEF78DFA00238C
:10215000002B02D0786814F07DFA7B6818460837A7
:10216000BD4680BDE032030880B582B000AF786024
:102170007B681B680C3B1B681A467B681344184637
:10218000FFF7D2FF034618460837BD4680BD00BFA3
:1021900080B582B000AF78607868FFF7C5FF7868D7
:1021A00014F058FA7B6818460837BD4680BD00BF5A
:1021B00080B582B000AF78607B681B680C3B1B6801
:1021C0001A467B6813441846FFF7E2FF0346184699
:1021D0000837BD4680BD00BF80B582B000AF7860D3
:1021E0007B6818460DF0EAF87B6818460837BD464C
:1021F00080BD00BF80B582B000AF78607B682833B7
:102200001846FEF7CBFA7B681C3318460DF0BCF974
:102210007B68103318460DF0B7F97B680433184615
:102220000DF0B2F97B6818460837BD4680BD00BF87
:1022300080B582B000AF78607B6818460DF0BEF8BC
:102240007B6818460837BD4680BD00BF80B582B0A8
:1022500000AF786039607B68012B3FD13B684FF657
:10226000FF7293423AD11F486421FFF73BFB1D48A0
:102270001D491E4A14F0E8F91D486421FFF732FB9E
:102280001B481949194A14F0DFF91A48FEF788F972
:1022900018481949154A14F0D7F91848FEF7ECFC0C
:1022A00017481649FEF78CFA154816490F4A14F0DC
:1022B000CBF915481249FEF769FB134813490B4A3D
:1022C00014F0C2F912483221FFF72EFB10481149D1
:1022D000064A14F0B9F91048FFF798F80837BD46D8
:1022E00080BD00BF440C0020D9210108000000205F
:1022F000480C0020540C0020C9050108680C00207F
:10230000700C0020F5210108280D0020292101086A
:10231000AC0D002031220108B00D002080B500AFC7
:1023200001204FF6FF71FFF791FF80BD90B5AFB070
:1023300000AF4FF0FF33C7F8B430554B1B681B6834
:1023400008331C68524B1B68184652494FF4806290
:10235000C823A047C7F8B000D7F8B030002B49DD3C
:102360004C4B1B78C7F8AC30D7F8B030013BC7F8FE
:10237000A830D7F8AC30C7F8A430474B1B7883F0AF
:102380000103DBB2002B02D0434B01221A70D7F8B5
:10239000A430002B1BD14148D7F8A810FEF7F0FC61
:1023A0000DF0F6FB02463E4B1A603E4B1B68012BBC
:1023B00020D13C4B00221A603B4BDB6B002B19D029
:1023C000394BDB6B374A12681046984712E0D7F852
:1023D000A430012B05D13148D7F8A810FEF7D8FE5C
:1023E00008E0D7F8A430022B04D12C48D7F8A81065
:1023F00003F014FD0DF0CCFBC7F8A000284B1B68C0
:10240000B3F1FF3F1AD0274B1B68002B16D1244B8A
:102410001B68D7F8A020D21A244B1B685B009A4295
:102420000CD3204B01221A601F4BDB6B002B05D015
:102430001D4BDB6B1B4A126810469847D7F8A0204B
:10244000D7F8B430D21A194B1B689A421FD307F140
:10245000800318460021FEF72BF93A4607F1800366
:10246000104664211A4600F0E7F9012387F870301E
:10247000D7F8A0307B6703F011FE0346BB673B46ED
:102480001846FEF7D1FED7F8A030C7F8B43054E7AD
:102490004C0C0020FC0D0020640C0020FD0D0020E1
:1024A0003C04002034040020B00D0020380400203B
:1024B00080B582B000AF78603960074B1B681B683D
:1024C00010331B68044A1268104679683A689847C6
:1024D0000837BD4680BD00BF4C0C002080B582B0DF
:1024E00000AF03460A46FB711346BB800B4B1B68CB
:1024F0001B680C331B68094A126810469847074B43
:102500001B681B6810331B68044A1168FA1D0846D3
:102510001146012298470837BD4680BD4C0C00206B
:1025200080B582B000AF0346FB80064B1B681B687A
:1025300014331B68034A1268104698470837BD4693
:1025400080BD00BF4C0C002080B483B000AF786029
:102550007B681B78002B14BF01230023DBB21846D5
:102560000C37BD465DF8047B704700BF80B586B070
:1025700000AFF860B9607A607B681B687B61F868BF
:10258000B96801F095FD034683F00103DBB2002B2F
:1025900001D0002309E078691FF052F80346F8687B
:1025A00079691A4601F0CAFD034618461837BD4638
:1025B00080BD00BF80B586B000AFF860B9607A60BA
:1025C0007B681B687B61F868B96801F071FD0346A0
:1025D00083F00103DBB2002B01D0002309E07B690B
:1025E0005A687B691B68F86811461A4601F0A6FD17
:1025F000034618461837BD4680BD00BF80B584B07D
:1026000000AF03463960FB713B68FB60FB1DF86857
:102610001946012201F068F91037BD4680BD00BFA0
:1026200080B586B000AFF860B9607A607B681B68DF
:102630007B61F868B96801F03BFD034683F0010354
:10264000DBB2002B01D000231CE07B69FA689A639F
:10265000786904F04FF838613B691A464FEAE27333
:10266000F86801F06BFC034683F00103DBB2002B3A
:1026700001D0002306E0786904F050F802467B6937
:102680005A63012318461837BD4680BD80B588B00F
:1026900000AFF860B9607A607B681B68BB6157E087
:1026A000FB689B68FB83BB691B68002B15D007F197
:1026B0001703F8681946012201F0DAFF034683F098
:1026C0000103DBB2002B01D0002346E0BB691B688D
:1026D000FA7D1046B96998473AE0BB695B68002B00
:1026E00027D0FA8BBB699B68013B9A4204DDBB692A
:1026F0009B689BB2013BFB83BB695A68FB8BF86804
:1027000011461A4601F0B4FF034683F00103DBB221
:10271000002B01D0002320E0BB695A68FB8B1344D7
:1027200000221A70BB6900225A60BB6900229A60BD
:102730000EE007F11603F8681946012201F098FF30
:10274000034683F00103DBB2002B01D0002304E039
:10275000FB689B68002BA3D1012318462037BD4698
:1027600080BD00BF80B584B000AF786039603A6842
:10277000094BFB6007F10C031046194600F0A2F864
:102780007B68064A1A607B683A685A6000BF7868BE
:102790001037BD4680BD00BFFD2501082126010878
:1027A00080B483B000AF786039607B68054A1A60F6
:1027B0007B683A685A6000BF78680C37BD465DF8A0
:1027C000047B70476D25010880B483B000AF78604A
:1027D00039607B68054A1A607B683A685A6000BFB6
:1027E00078680C37BD465DF8047B7047B525010855
:1027F00080B582B000AF786039603B687A68104677
:102800001946FFF7CDFF78680837BD4680BD00BF89
:1028100080B483B000AF786039607B68054A1A6085
:102820007B683A685A6000BF78680C37BD465DF82F
:10283000047B70478D26010890B587B000AF7861A2
:102840000B46FA60FB747869FEF72EFA7B69FA7C16
:102850001A700E4B1A687B69DA66F868FFF774FE27
:102860000346002B0CD07C693B461846F968FFF7FD
:10287000BFFF04F158033A4692E8030083E80300DF
:1028800000BF78691C37BD4690BD00BF600C0020BA
:1028900080B483B000AF78607B6818460C37BD46C3
:1028A0005DF8047B704700BF80B582B000AF7860F0
:1028B0007B681846FDF7FEFD7B6818460837BD4665
:1028C00080BD00BF80B586B000AF786039603868E1
:1028D000FFF7DEFF03461B6807F1080210461946A2
:1028E00000F034F807F108031846796800F05AF848
:1028F00007F108031846FFF7D7FF7B68184618371B
:10290000BD4680BD80B483B000AF78607B68184658
:102910000C37BD465DF8047B704700BF80B582B0C0
:1029200000AF78607868FFF7EDFF7B6818460837DE
:10293000BD4680BD80B483B000AF78607B68184628
:102940000C37BD465DF8047B704700BF90B583B07F
:1029500000AF786039607868FFF7E0FF7B68184661
:10296000FDF79AFD3B46184600F03CF80346002B65
:102970000FD07C683B461846FFF7DCFF0346204635
:10298000194600F041F87B68044ADA607B68044A23
:102990009A607B6818460C37BD4690BD452A0108F1
:1029A000852A010880B582B000AF786039607A6806
:1029B0003B6810461946FFF7C7F97B6803F1080228
:1029C0003B68083310461946FFF7F0F97B6803F1BE
:1029D0000C023B680C331046194600F087F80837A4
:1029E000BD4680BD80B483B000AF78607B681B6853
:1029F000002B14BF01230023DBB218460C37BD4661
:102A00005DF8047B704700BF90B585B000AF78607B
:102A100039603868FFF78EFF03467868194622460A
:102A200000F082F81437BD4690BD00BF80B483B07B
:102A300000AF78607B6818460C37BD465DF8047BB4
:102A4000704700BFB0B584B000AFF8600B467A6045
:102A5000FB72F86800F082F803461C6807F10B036C
:102A60001846FFF7E3FF03461D783B1D1846FEF7A7
:102A70002DFF03461B6828461946A0471037BD4660
:102A8000B0BD00BFB0B586B000AFF860B960134606
:102A9000FB71FB79022B0DD0032B11D0012B14D12C
:102AA000F86800F06DF80446B86800F057F803467F
:102AB00023600AE0F868B9682A4600F06DF804E07F
:102AC000F868214600F082F800BF00231846183746
:102AD000BD46B0BD80B483B000AF78607B68184657
:102AE0000C37BD465DF8047B704700BF80B584B0ED
:102AF00000AF786039607868FFF7ECFF03461B6829
:102B0000FB603868FFF7E6FF03461A687B681A60C7
:102B100007F10C031846FFF7DDFF03461A683B6810
:102B20001A601037BD4680BD90B585B000AFF86023
:102B3000B9603A71B868FFF7FDFE03461C68F86893
:102B4000FDF792FC034604201946FDF781FC03467D
:102B5000002B00D01C601437BD4690BD80B584B0FA
:102B600000AF7860786800F03DF80346184600F042
:102B700045F8F860FB6818461037BD4680BD00BFB9
:102B800080B582B000AF78607868FDF76DFC0346D1
:102B900018460837BD4680BD90B585B000AFF860D7
:102BA000B9603A71B86800F01DF803461C68F8680F
:102BB000FDF75AFC034604201946FDF749FC03467D
:102BC000002B00D01C601437BD4690BD80B582B08C
:102BD00000AF78603970786800F01CF80837BD469F
:102BE00080BD00BF80B582B000AF78607868FDF727
:102BF00047FC034618460837BD4680BD80B483B005
:102C000000AF78607B6818460C37BD465DF8047BE2
:102C1000704700BF80B582B000AF78607868FDF77C
:102C200023FC034618460837BD4680BD80B483B0F8
:102C300000AF7860072318460C37BD465DF8047B6B
:102C4000704700BF80B582B000AF78607B681B68BA
:102C500008331B6878689847034618460837BD460E
:102C600080BD00BF80B582B000AF786039607B68FE
:102C70001B680C331B687868396898470346184608
:102C80000837BD4680BD00BF80B483B000AF786018
:102C90007B6818460C37BD465DF8047B704700BF63
:102CA00080B483B000AF78600B46FB701346BB70F6
:102CB0007B68FA781A707B68BA785A707B68184615
:102CC0000C37BD465DF8047B704700BF80B483B00D
:102CD00000AF786039600C37BD465DF8047B704703
:102CE000B0B590B000AF78600023FB630023BB61F8
:102CF0000023FB857B68002283F84C20BDE07B68C5
:102D00001B681B681C687B681A680A2507F10C039E
:102D1000104619462A464623A04778627B6A002B54
:102D200007DD7B68D3F890207B6A1A447B68C3F880
:102D300090200023BB6282E007F10C02BB6A1344BF
:102D40001B7887F823307B7E3B76BB7E7B76FB7ED1
:102D5000BB7697F82330FB763A7E4E4B1B789A422F
:102D600010D17A7E4B4B5B789A420BD1BA7E494B9D
:102D70009B789A4206D1FA7E464BDB789A4201D183
:102D8000012300E0002387F822307B685433FB6185
:102D9000FB6B012B14D0022B30D0002B4CD197F8B9
:102DA0002230002B0BD00123FB630CF0F1FE034615
:102DB0001A464FF00003C7E90C230023FB853BE0D4
:102DC000FB8D5A1CFA851A46FB69134497F8232099
:102DD0001A70FB8D092B10D17B68B3F859309BB268
:102DE000002B04D00023FB850223FB6305E07868F9
:102DF00000F052F80023FB631EE01DE07B681A6DB3
:102E0000FB8D591CF985134497F823201A707B68B1
:102E1000B3F859309BB2FA8D9A4205D1786800F028
:102E20003BF80023FB6306E0FA8D7B689B6C9A42BB
:102E300001DD0023FB6300BFBB6A0133BB62BA6ADA
:102E40007B6A9A42FFF678AFFB6B002B10D00CF038
:102E50009FFE034618464FF00001D7E90C23821A63
:102E600061EB0303002B08BF962A01D3012300E086
:102E70000023002B01D00023FB637B6893F84C30C8
:102E800083F00103DBB2002B7FF439AF4037BD463E
:102E9000B0BD00BF4404002090B585B000AF78609D
:102EA0007B6893F85B2093F85C301B021343FB8133
:102EB0007B68002283F85B20002283F85C200023DB
:102EC000BB817B6854330924BA89104619462246CF
:102ED00000F064FC0346BB817B681A6D7B68B3F825
:102EE00059309BB21C46BB8918461146224600F059
:102EF00055FC0346BB81FA89BB899A4208D17B689D
:102F0000543305481946FFF7E1FE786800F006F8EB
:102F10001437BD4690BD00BFBC33030890B589B0DF
:102F200000AF78607B6893F854307B610023FB77B7
:102F30007B6893F85430082B1FD17B6810331846F8
:102F40004FF0FF31FFF78EFE7B68B3F855309AB231
:102F50007B68A3F880207B68B3F857309AB27B680F
:102F6000A3F882207B6810331846FFF76BFE7B685E
:102F7000283318460CF0D8FEEDE07B6903F002031D
:102F8000002B37D07B68B3F855309AB27B68B3F822
:102F900064309A422ED07B681C6E07F108031846F5
:102FA00001210022FFF77CFE07F1080320461946A5
:102FB0000A2200F033FC0346002B13D07B68B3F8E1
:102FC00055309AB27B68A3F864207B680022A3F88E
:102FD00066207B684FF0FF329A667B68012283F897
:102FE0006C2007E07B68D3F89C305A1C7B68C3F8E0
:102FF0009C20AAE07B6903F00103002B3AD07B6898
:10300000B3F855309AB27B68B3F864309A4231D144
:103010007B68B3F857309AB27B68B3F866309A424F
:1030200009D27B68D3F8AC305A1C7B68C3F8AC205B
:103030000123FB771EE0786800F090F80346002B30
:1030400010D07B68D3F898305A1C7B68C3F898205E
:103050007B68B3F857309AB27B68A3F866200123E7
:10306000FB7707E07B68D3F8A8305A1C7B68C3F86D
:10307000A8206AE07B6903F00403002B65D07B681D
:10308000B3F855309AB27B68B3F864309A425CD199
:103090007B6893F86C30042B09D17B68D3F8AC3093
:1030A0005A1C7B68C3F8AC200123FB774DE07B689A
:1030B0009B6E01333B617B6903F00103002B0BD056
:1030C0007B68B3F857309BB21A467B68B3F8593027
:1030D0009BB21344BB6104E07B68B3F857309BB2EA
:1030E000BB613A69BB699A422FD17B681C6E07F1BC
:1030F0000C03184602210022FFF7D2FD07F10C0352
:10310000204619460A2200F089FB0346002B14D002
:103110007B68D3F898305A1C7B68C3F898207B688A
:10312000B3F857309AB27B68A3F866207B68042214
:1031300083F86C200123FB7707E07B68D3F8A0308D
:103140005A1C7B68C3F8A020FFE7FB7F002B02D04E
:10315000786800F005FB2437BD4690BD90B587B078
:1031600000AF78607B68B3F859309BB23B610023B5
:103170007B613DE07B68B3F857309BB21A467B69B0
:103180001344FB607B689A6EFB689A422DDA7B6879
:103190001C6E7B681A6D7B6913441B7807F108026B
:1031A000104600211A46FFF77BFD07F10803204671
:1031B00019460A2200F032FB0346002B0CD07B6834
:1031C0009B6E5A1C7B689A667B68D3F894305A1CB5
:1031D0007B68C3F8942008E07B68D3F8A4305A1CBD
:1031E0007B68C3F8A420002307E07B6901337B617F
:1031F0007A693B699A42BDDB012318461C37BD46FC
:1032000090BD00BF80B582B000AF78607B681C3392
:1032100018464FF0FF31FFF725FD7B68022283F847
:103220006D207B68B3F86E3001339AB27B68A3F8E7
:103230006E207B680022A3F872207B680022A3F82E
:1032400074207B680022A3F870207B680022DA6774
:103250000837BD4680BD00BF80B586B000AFF860BE
:10326000B9607A6000237B6126E0FB689A6FFB6897
:10327000DB6F581CF968C8670933043313447A6953
:10328000B9680A4412781A70FB68DA6FFB689B6CA5
:103290009A420ED1F868002100F060F838613B696D
:1032A000002B06DAFB681C331846FFF7CBFC3B69A2
:1032B00007E07B6901337B617A697B689A42D4DBE2
:1032C0007B6818461837BD4680BD00BF80B588B002
:1032D00000AF78607B68DB6F002B0FDD7868012121
:1032E00000F03CF8F861FB69002B06DA7B681C33C0
:1032F0001846FFF7A7FCFB692BE024E004233B738F
:103300007B68B3F86E30A7F80D307B68B3F8703087
:10331000A7F80F300023FB7400233B7500237B7458
:103320000023BB7407F10C037868194600F0A0F87D
:10333000B861BB69002B06DA7B681C331846FFF7BF
:1033400081FCBB6905E07B681C331846FFF77AFCFB
:10335000002318462037BD4680BD00BF80B584B02D
:1033600000AF78600B46FB707B68DB6F9AB27B68BE
:10337000A3F872207B6893F86D3043F00103DAB252
:103380007B6883F86D20FB78002B08D07B6893F86E
:103390006D3043F00403DAB27B6883F86D207B68FC
:1033A0006D337868194600F063F8F860FB68002B0D
:1033B0001AD17B68B3F870207B68B3F8723013447D
:1033C0009AB27B68A3F870207B6893F86D3023F085
:1033D0000203DAB27B6883F86D207B680022DA672B
:1033E0007B68B3F8723000E0FB6818461037BD46C2
:1033F00080BD00BFB0B588B000AF786039603B6871
:103400000022DA7100221A720923002039681A4654
:1034100000F0C4F90346FB833B68FA8BA3F807204E
:10342000124B1B68BB6007F1080304331846396868
:1034300009221DF07FF97B681B681B6804331C6838
:103440007B681A680D2507F10803104619462A46BD
:103450006423A047B861BB69002B02DA6FF0020356
:1034600000E0002318462037BD46B0BD44040020CC
:1034700090B589B000AF786039603B680022DA719E
:1034800000221A720923002039681A4600F086F9D2
:103490000346BB837B689B6F0D221A443B68B3F8DD
:1034A00005309BB21C46BB8B18461146224600F0E5
:1034B00075F90346BB833B68BA8BA3F807205948CC
:1034C0003968FFF703FC7B689B6F574A10681860E8
:1034D0007B689B6F04331846396809221DF02AF96E
:1034E0000CF056FB03461A464FF00003C7E90423CD
:1034F00072E07B681B681B6804331C687B68196872
:103500007B689A6F3B68B3F805309BB2093304338C
:10351000084611461A466423A047F860FB68002B52
:1035200002DA6FF0020379E00023FB777B68103347
:1035300018464FF0FF31FFF795FB11E07B6803F170
:1035400028027B68103310461946C8220CF00CFC88
:10355000034683F00103DBB2002B01D00123FB778C
:10356000FB7F83F00103DBB2002B11D07B68B3F843
:1035700080203B68B3F801309BB29A42DED17B6871
:10358000B3F882203B68B3F803309BB29A42D5D19E
:103590007B6810331846FFF755FBFB7F002B07D0E5
:1035A0007B68D3F8B0305A1C7B68C3F8B02013E0B6
:1035B0007B68D3F888303A68B2F8052092B21A4492
:1035C0007B68C3F888207B68D3F88C305A1C7B68F2
:1035D000C3F88C20002321E00CF0DAFA03461846E9
:1035E0004FF00001D7E90423821A61EB030340F294
:1035F000E7304FF00001994208BF90422CBF0123F1
:103600000023DBB2002B7FF474AF7B68D3F8B430B7
:103610005A1C7B68C3F8B4204FF0FF331846243798
:10362000BD4690BDCC3303084404002080B588B06B
:1036300000AFF860B9607A603B603B68002B06DA47
:1036400044484FF4F571444A444B1CF03BFA7B6804
:10365000002B01DC002379E0FB68043318464FF0AF
:10366000FF31FFF7FFFABB68BB610023FB6163E03A
:1036700007F114031846FFF707FBFB68196E3B6858
:1036800007F11402084611461A4600F0D7F803461F
:10369000FB7500233B60FB7D002B43D03B7D002B63
:1036A0000ED1FB681A6E07F114031046194600226A
:1036B00000F0D4F8FB69BA6913447A7D1A7038E0D7
:1036C000FB69002B27D13B7D012B10D1FB681A6EC3
:1036D00007F1140310461946002200F0BFF8FB68FA
:1036E00004331846FFF7AEFA6FF003032EE03B7D7C
:1036F000022B1ED1FB681A6E07F1140310461946FF
:10370000002200F0ABF8FB6804331846FFF79AFA82
:103710006FF004031AE0FB6804331846FFF792FACF
:10372000FB6913E0FB6804331846FFF78BFAFB696B
:103730000CE0FB690133FB61FA697B689A4297DB15
:10374000FB6804331846FFF77DFA7B68184620377C
:10375000BD4680BDDC330308143403080434030879
:1037600080B586B000AF786008233B737B68B3F800
:103770006430A7F80D307B68B3F86630A7F80F30D7
:1037800000237B740023BB7407F10C03786819468F
:10379000FFF730FE1837BD4680BD00BF80B487B04C
:1037A00000AF0346B9607A60FB81BB683B6123E0F0
:1037B0003B695A1C3A611B789AB2FB895340FB81E2
:1037C00000237B6115E0FB8903F00103002B0AD085
:1037D000FB895B109BB283F4BF4383F07E03DB4322
:1037E0009BB2FB8102E0FB895B10FB817B690133AB
:1037F0007B617B69072BE6DD7B685A1E7A60002BB4
:1038000014BF01230023DBB2002BD1D1FB89184662
:103810001C37BD465DF8047B704700BF80B584B09F
:1038200000AFF860B9607A60F868B9687A6800F04B
:1038300025F8034618461037BD4680BD80B584B0D4
:1038400000AFF860B9607A60F868B9687A6800F02B
:1038500027F8034618461037BD4680BD80B584B0B2
:1038600000AFF860B9607A60F868B9687A6800F00B
:1038700029F8034618461037BD4680BD80B584B090
:1038800000AFF860B9607A60FB681846B9687A687A
:103890000BF0AEFD034618461037BD4680BD00BF95
:1038A00080B584B000AFF860B9607A60FB681846F4
:1038B000B9687A680BF0D8FD034618461037BD4644
:1038C00080BD00BF80B584B000AFF860B9607A6099
:1038D000FB681846B9687A680BF0A8FD03461846DD
:1038E0001037BD4680BD00BF80B584B000AFF86022
:1038F000B9607A60FB681B68002B2BD0FB68DA6824
:103900007B681A44FB689B689A420BD9FB681B6969
:10391000002B02D0FB681B6900E0144BFA681361AE
:1039200000231EE0FB681B68F868B9687A6898474E
:10393000034683F00103DBB2002B0BD0FB681B694D
:10394000002B02D0FB681B6900E0094BFA68136189
:10395000002306E0FB68DA687B681A44FB68DA60DB
:10396000012318461037BD4680BD00BF5C340308F4
:103970006834030880B58CB000AFF860B9607A6035
:103980003B603B68002B01D10123F5E0BB685B780D
:1039900003F0C003802B11D0BB685B791A463B68EB
:1039A0009A420BD2FB681B69002B02D0FB681B6993
:1039B00000E0734BFA6813610023DDE0BB685B78BD
:1039C00003F00F03042B00F38A80BB681B78F868B0
:1039D00002211A4600F04AFB034683F00103DBB2E2
:1039E000002B01D00023C7E0BB685B7803F00F0316
:1039F000032B03D13B689B007B6236E0BB685B789E
:103A000003F00F03042B03D13B68DB007B622CE047
:103A100000233B6100237B610023BB610023FB612A
:103A200000233B627B68BB620023FB6217E007F167
:103A30001002BB6B1046B968BA6A9847034683F018
:103A40000103DBB2002B01D0002395E0BB681B799A
:103A50001A46BB6A1344BB62FB6A0133FB62FA6A13
:103A60003B689A42E3D3FB697B627B6A1A464FF05C
:103A70000003F86800F062FA034683F00103DBB24A
:103A8000002B01D0002377E0FB681B68002B06D1D8
:103A9000F86800217A6AFFF727FF03466CE07B682D
:103AA000BB620023FB6215E0BB6BF868B968BA6AB9
:103AB0009847034683F00103DBB2002B01D00023BB
:103AC0005AE0BB681B791A46BB6A1344BB62FB6AA7
:103AD0000133FB62FA6A3B689A42E5D34BE07B68AC
:103AE000BB620023FB6242E0F868B96800F0E0FACC
:103AF000034683F00103DBB2002B01D000233BE03F
:103B0000BB685B7803F0C003802B1AD1BB685B787D
:103B100003F00F03062B05D0BB685B7803F00F039F
:103B2000052B0ED1BB6A1A68BB6BF868B968984759
:103B3000034683F00103DBB2002B01D000231BE01E
:103B40000CE0BB6BF868B968BA6A9847034683F023
:103B50000103DBB2002B01D000230DE0BB681B7911
:103B60001A46BB6A1344BB62FB6A0133FB62FA6A02
:103B70003B689A42B8D3012318463037BD4680BD12
:103B80007434030890B58BB002AFF860B9607A6006
:103B90000123FB75BB685B7803F00F035E4A52F8A4
:103BA0002330BB61BB68DB78002B06D0BB68DB78B9
:103BB0005BB27A681344FB6102E007F11703FB6113
:103BC000BB685B7803F0C003802B09D17B681B685E
:103BD0007B607B68002B14BF01230023DBB2FB75E5
:103BE000BB685B7803F03003102B32D0102B02DC63
:103BF000002B05D07FE0202B49D0302B5BD07AE022
:103C00007B68002B0BD1FB681B69002B02D0FB6883
:103C10001B6900E0414BFA681361002378E0F86803
:103C2000B96800F045FA034683F00103DBB2002BCC
:103C300001D000236CE0BB69F868B9687A689847DE
:103C4000034683F00103DBB2002B01D000235FE0C9
:103C50005DE0FB691B78002B18D0F868B96800F0AC
:103C600027FA034683F00103DBB2002B01D00023C7
:103C70004EE0BB69F868B9687A689847034683F0F4
:103C80000103DBB2002B01D0002341E03FE0FB69E0
:103C90001B781C46BB690093F868B9687A682346AC
:103CA000FFF768FE034683F00103DBB2002B01D06F
:103CB00000232DE02BE0FB691A78BB681B789A4241
:103CC00018D1F868B96800F0F3F9034683F00103EE
:103CD000DBB2002B01D000231AE0BB69F868B96899
:103CE0007A689847034683F00103DBB2002B01D0CA
:103CF00000230DE00BE0FB681B69002B02D0FB6882
:103D00001B6900E0064BFA681361002300E0012301
:103D100018462437BD4690BD383403088C34030858
:103D2000A434030880B586B000AFF860B9607A604B
:103D30007B687B617B6904333B617B691B68002B7B
:103D400017D07B691B68F868B9683A6998470346D9
:103D500083F00103DBB2002B0BD0FB681B69002B47
:103D600002D0FB681B6900E0044BFA681361002372
:103D700000E0012318461837BD4680BDB83403085B
:103D800080B584B000AFF860B9607A60BB685B78DA
:103D900003F0C003402B0AD0802B01D0002B0DD1A3
:103DA000F868B9687A68FFF7EDFE034611E0F86835
:103DB000B9687A68FFF7B6FF03460AE0FB681B693B
:103DC000002B02D0FB681B6900E0044BFA6813610A
:103DD000002318461037BD4680BD00BFA434030839
:103DE00080B584B000AF786039603B681B689B6821
:103DF000FB60FB685B7803F0C003802B08D13B6855
:103E000004337868F9681A46FFF7BAFF034607E0FB
:103E10003B685B687868F9681A46FFF7B1FF0346AC
:103E200018461037BD4680BD80B586B000AFF8603B
:103E3000B9607A607B681B687B611EE07B691B68E8
:103E40005B68002B08D07B691B685B68F868796940
:103E500098470346FB7405E0F8687969FFF7C0FFEF
:103E60000346FB74FB7C83F00103DBB2002B01D023
:103E7000002306E07B699B687B617B69002BDDD1B9
:103E8000012318461837BD4680BD00BF80B485B0F9
:103E900000AF78607B68FB60FB6818461437BD464E
:103EA0005DF8047B704700BF80B58AB000AFF86052
:103EB000B9607A607868FFF7E9FF024607F11003FE
:103EC0001846B96801F08AFE034683F00103DBB2AD
:103ED000002B01D001232CE07B695B7803F00F03FA
:103EE000082B0ED17A693B6AF86811461A46FFF72B
:103EF0009BFF034683F00103DBB2002B10D00023AD
:103F000017E07A693B6AF86811461A46FFF738FFEE
:103F1000034683F00103DBB2002B01D0002308E04D
:103F200007F11003184601F08BFE0346002BD3D196
:103F3000012318462837BD4680BD00BFB0B588B004
:103F400000AFF860C7E900230023FB61D7E9002335
:103F5000134307D13B46F86819460122FFF7C4FC1A
:103F6000034634E016E0D7E90023D3B263F07F03C1
:103F7000D9B207F11002FB6913440A461A70D7E957
:103F80000023D40944EA4364DD09C7E90045FB691D
:103F90000133FB61D7E900231343E4D1FB69013B03
:103FA000FA69013A07F120010A4412F8102C02F0D4
:103FB0007F02D2B207F120010B4403F8102C07F165
:103FC0001003F8681946FA69FFF78EFC0346184695
:103FD0002037BD46B0BD00BF80B586B000AFF860E9
:103FE000C7E90023D7E90023002A73F100030BDAA5
:103FF000D7E90023921843EB03036FEA02026FEA4A
:104000000303C7E9042306E0D7E90023921843EB32
:104010000303C7E90423F868D7E90423FFF78EFFF9
:10402000034618461837BD4680BD00BF80B582B034
:1040300000AF78603960786839680422FFF754FC73
:10404000034618460837BD4680BD00BF80B582B024
:1040500000AF78603960786839680822FFF744FC5F
:10406000034618460837BD4680BD00BFB0B586B0D0
:1040700000AFF8600B467A60FB727B681A464FF01F
:104080000003DD0045EA5275D400FA7A4FF00003D0
:1040900042EA040243EA0503C7E90423F868D7E9C2
:1040A0000423FFF74BFF034618461837BD46B0BD43
:1040B00080B584B000AF786039603B685B7803F00E
:1040C0000F03072B1ED801A252F823F0ED40010880
:1040D000ED400108ED400108F3400108F9400108F6
:1040E000FF400108FF400108FF4001080023FB7367
:1040F00014E00523FB7311E00123FB730EE00223A0
:10410000FB730BE07B681B69002B02D07B681B698B
:1041100000E0094B7A681361002308E03B681B78D4
:104120001A46FB7B78681946FFF7A0FF034618463E
:104130001037BD4680BD00BFA434030880B584B0ED
:1041400000AFF860B9607A607B681A464FF00003F0
:10415000F868FFF7F3FE034683F00103DBB2002BA0
:1041600001D0002305E0F868B9687A68FFF7BCFB66
:10417000034618461037BD4680BD00BF80B58CB0E1
:1041800000AFF860B9607A6000237B610023BB61F7
:104190000023FB6100233B6200237B6207F11403D1
:1041A0001846B9687A68FFF77FFE034683F001037B
:1041B000DBB2002B04D07A6AFB681A61002363E04B
:1041C0003B6AFB62FB6A1A464FF00003F868FFF790
:1041D000B5FE034683F00103DBB2002B01D00023C0
:1041E00052E0FB681B68002B06D1F8680021FA6AD0
:1041F000FFF77AFB034647E0FB68DA68FB6A1A447C
:10420000FB689B689A420BD9FB681B69002B02D0A4
:10421000FB681B6900E01E4BFA681361002333E062
:10422000FB681B687B61FB685B68BB61FB6AFB61C9
:1042300000233B6200237B6207F114031846B96830
:104240007A68FFF731FE034687F82B30FB68DA689F
:104250003B6A1A44FB68DA60BA69FB685A607A6A9A
:10426000FB681A613A6AFB6A9A420BD0FB681B69C9
:10427000002B02D0FB681B6900E0064BFA68136153
:10428000002301E097F82B3018463037BD4680BD3B
:104290005C340308C834030880B586B000AFF8600A
:1042A000B9607A604FF000024FF00003C7E90423C1
:1042B000BB681B79013B072B30D801A252F823F0D1
:1042C000E1420108F14201081D43010801430108D0
:1042D0001D4301081D4301081D4301081143010846
:1042E0007B681B785AB24FEAE273C7E9042321E0E6
:1042F0007B681B881AB24FEAE273C7E9042319E00E
:104300007B681B681A464FEAE273C7E9042311E091
:104310007B68D3E90023C7E904230BE0FB681B6932
:10432000002B02D0FB681B6900E0074BFA681361A1
:10433000002305E0D7E90423F868FFF7FFFD0346F3
:1043400018461837BD4680BDDC34030880B586B0FA
:1043500000AFF860B9607A604FF000024FF00003E0
:10436000C7E90423BB681B79013B072B30D801A2A6
:1043700052F823F095430108A5430108D1430108F1
:10438000B5430108D1430108D1430108D1430108D5
:10439000C54301087B681B78DAB24FF00003C7E918
:1043A000042321E07B681B889AB24FF00003C7E921
:1043B000042319E07B681B681A464FF00003C7E925
:1043C000042311E07B68D3E90023C7E904230BE051
:1043D000FB681B69002B02D0FB681B6900E0074BE0
:1043E000FA681361002305E0F868D7E90423FFF7B2
:1043F000A5FD034618461837BD4680BDDC340308CA
:1044000080B586B000AFF860B9607A604FF0000206
:104410004FF00003C7E90423BB681B79013B072B5E
:1044200030D801A252F823F0494401085944010848
:104430008544010869440108854401088544010850
:1044400085440108794401087B681B785AB24FEA19
:10445000E273C7E9042321E07B681B881AB24FEAA4
:10446000E273C7E9042319E07B681B681A464FEA28
:10447000E273C7E9042311E07B68D3E90023C7E9AD
:1044800004230BE0FB681B69002B02D0FB681B694F
:1044900000E0074BFA681361002305E0F868D7E9EC
:1044A0000423FFF799FD034618461837BD4680BD23
:1044B000DC34030880B584B000AFF860B9607A607E
:1044C000F8687968FFF7C2FD034618461037BD4605
:1044D00080BD00BF80B584B000AFF860B9607A607D
:1044E000F8687968FFF7A2FD034618461037BD4605
:1044F00080BD00BF80B586B000AFF860B9607A605B
:104500007B687B617B68002B06D1F8680021002264
:10451000FFF714FE034622E0BB685B7803F0C0039C
:10452000002B12D17B691B780133BA681279934250
:104530000BD9FB681B69002B02D0FB681B6900E0EC
:10454000094BFA681361002309E07B695A1C7B69F7
:104550001B78F86811461A46FFF7F0FD0346184627
:104560001837BD4680BD00BFF034030880B588B061
:1045700000AFF860B9607A600023FB61BB681B790B
:10458000BB617B687B61BB685B7803F0C003802BF9
:1045900002D14FF0FF33BB617B68002B02D10023B7
:1045A000FB610EE005E0FB690133FB617B690133D0
:1045B0007B61FA69BB699A4203D27B691B78002B45
:1045C000F1D1F8687968FA69FFF7B8FD0346184633
:1045D0002037BD4680BD00BF80B584B000AFF86015
:1045E000B9607A60BB68D3F80630002B0BD1FB684A
:1045F0001B69002B02D0FB681B6900E0084BFA68BE
:104600001361002308E0BB68D3F80630F868194648
:104610007A68FFF7B3FD034618461037BD4680BDE4
:104620000435030880B487B000AFF860B9607A60E1
:10463000FB685B687B617A697B681A44FB685A6037
:10464000BB68002B0DD007E0BB685A1CBA607A69C2
:10465000511C796112781A707B685A1E7A60002B9F
:10466000F2D1012318461C37BD465DF8047B704724
:1046700080B588B000AFF860B9607A60BB68002B85
:1046800023D1FB681B682B4A93421ED011E007F12F
:104690001003F86819461022FFF7EAFF034683F07B
:1046A0000103DBB2002B01D000233EE07B68103B0E
:1046B0007B607B68102BEAD807F11003F868194675
:1046C0007A68FFF7D5FF03462FE0FB689A687B689E
:1046D0009A420BD2FB68DB68002B02D0FB68DB68D8
:1046E00000E0154BFA68D36000231EE0FB681B68EE
:1046F000F868B9687A689847034683F00103DBB22B
:10470000002B0BD0FB68DB68002B02D0FB68DB685A
:1047100000E00A4BFA68D360002306E0FB689A6861
:104720007B68D21AFB689A60012318462037BD4681
:1047300080BD00BF254601084435030854350308F1
:1047400080B582B000AF786039607B689B68002BD1
:104750000BD17B68DB68002B02D07B68DB6800E054
:10476000134B7A68D36000231DE07B681B68786870
:10477000396801229847034683F00103DBB2002B1E
:104780000BD07B68DB68002B02D07B68DB6800E025
:10479000084B7A68D360002305E07B689B685A1E4B
:1047A0007B689A60012318460837BD4680BD00BF6C
:1047B000443503085435030890B488B000AFF8605E
:1047C000B9607A60094B3B61BB687B617B68BB6108
:1047D0000023FB61FB681C4607F110030FCB84E844
:1047E0000F00F8682037BD4690BC70472546010889
:1047F00080B584B000AF7860396007F10A0378684B
:104800001946FFF79DFF034683F00103DBB2002B3F
:1048100001D000233FE0BB7ADBB25BB2002B02DBAE
:10482000BB7AFB6033E00723FB72BB7A03F07F03A4
:10483000FB60FB7A1F2B0BD97B68DB68002B02D057
:104840007B68DB6800E0164B7A68D360002322E0C7
:1048500007F10A0378681946FFF772FF034683F0F1
:104860000103DBB2002B01D0002314E0BB7A03F07C
:104870007F02FB7A02FA03F3FA681343FB60FB7AC8
:104880000733FB72BB7ADBB25BB2002BD1DB3B6838
:10489000FA681A60012318461037BD4680BD00BF74
:1048A00060350308F0B589B000AF78603960002347
:1048B000FB774FF000024FF00003C7E90423FB7FB2
:1048C0003F2B0BD97B68DB68002B02D07B68DB6851
:1048D00000E0244B7A68D36000233EE007F10F0329
:1048E00078681946FFF72CFF034683F00103DBB21B
:1048F000002B01D0002330E0FB7BDAB24FF0000345
:104900004FF07F004FF0000102EA000203EA0103CA
:10491000F97FA1F12006C1F1200003FA01F502FAA6
:1049200006F6354322FA00F0054302FA01F4D7E90E
:10493000042342EA040243EA0503C7E90423FB7F98
:104940000733FB77FB7BDBB25BB2002BB7DB39684D
:10495000D7E90423C1E90023012318462437BD46C3
:10496000F0BD00BF6035030880B584B000AF78604B
:1049700007F10F03786819460122FFF779FE034615
:1049800083F00103DBB2002B01D0002305E0FB7BA9
:10499000DBB25BB2002BEBDB012318461037BD46C0
:1049A00080BD00BF80B584B000AF786007F10C0314
:1049B00078681946FFF71CFF034683F00103DBB25A
:1049C000002B01D0002306E0FB68786800211A461E
:1049D000FFF74EFE034618461037BD4680BD00BFA8
:1049E00080B586B000AFF860B9607A603B603B6824
:1049F00000221A70BB6800221A707B6800221A60BD
:104A000007F11403F8681946FFF7F2FE034683F036
:104A10000103DBB2002B08D0FB689B68002B02D19E
:104A20003B6801221A70002313E07B69002B04D13C
:104A30003B6801221A7000230BE07B69DA087B686F
:104A40001A607B69DBB203F00703DAB2BB681A7045
:104A5000012318461837BD4680BD00BF80B582B01F
:104A600000AF78600B46FB70FB78052B26D801A2BF
:104A700052F823F08D4A0108974A0108A54A010817
:104A8000BD4A0108BD4A0108AF4A01087868FFF72E
:104A90006BFF03461DE0786800210822FFF7E8FD60
:104AA000034616E07868FFF77DFF034611E078685B
:104AB00000210422FFF7DCFD03460AE07B68DB6887
:104AC000002B02D07B68DB6800E0044B7A68D3607F
:104AD000002318460837BD4680BD00BF7035030867
:104AE00080B586B000AFF8607A603B600B46FB7221
:104AF0003B681B687B61FB7A012B29D0052B31D0E9
:104B0000002B39D13B6800221A603B681B685A1C95
:104B10003B681A603B681A687B699A4201D9002396
:104B200035E0F86879680122FFF7A2FD034683F0BB
:104B30000103DBB2002B01D0002328E07B685A1C64
:104B40007A601B78DBB25BB2002BDEDB01231EE058
:104B50003B6808221A60F86879680822FFF788FD28
:104B6000034614E03B6804221A60F868796804225E
:104B7000FFF77EFD03460AE0FB68DB68002B02D0EE
:104B8000FB68DB6800E0044BFA68D360002318463A
:104B90001837BD4680BD00BF7035030890B585B09D
:104BA00000AF7860396007F10C0378681946FFF7A9
:104BB0001FFE034683F00103DBB2002B01D000236C
:104BC00020E03A687B6814460FCB84E80F003B680E
:104BD0009A68FB689A420BD27B68DB68002B02D094
:104BE0007B68DB6800E0094B7A68D360002309E04A
:104BF000FA683B689A607B689A68FB68D21A7B689F
:104C00009A60012318461437BD4690BD84350308C9
:104C100080B483B000AF786039603B685A687B68C5
:104C20005A603B68DA687B68DA600C37BD465DF82D
:104C3000047B704780B58EB000AFF8600B467A6099
:104C4000FB727B685B685B7887F8363097F83630A4
:104C500003F00F037C4A52F823303B6397F8363059
:104C600003F03003102B13D0102B02DC002B06D0E6
:104C7000DAE0202B19D0302B00F0AD80D4E07B6837
:104C800059687B681A693B6BF86898470346D6E019
:104C90007B685B6901221A707B6859687B681A69B6
:104CA0003B6BF86898470346C9E0FB7A022B61D159
:104CB00097F8363003F00F03042B5BDC012387F8F1
:104CC00037307B685B69FB6207F11003F8681946AF
:104CD000FFF764FF034683F00103DBB2002B01D032
:104CE0000023ACE024E07B681B697A685268127983
:104CF0001146FA6A127802FB01F21344BB627B6828
:104D00005A6807F110013B6B08461146BA6A98478A
:104D1000034683F00103DBB2002B03D0002387F8A6
:104D200037300FE0FB6A1B780133DAB2FB6A1A7086
:104D3000BB69002B06D0FB6A1A787B685B685B79DD
:104D40009A42D0D307F11003F8681946FFF760FFC5
:104D5000BB69002B0BD0FB68DB68002B02D0FB6823
:104D6000DB6800E0394BFA68D360002367E097F80E
:104D7000373064E07B685B697B627B681B697A68BB
:104D80005268127911467A6A127802FB01F21344D2
:104D90003B627B6A1A787B685B685B799A420BD3CB
:104DA000FB68DB68002B02D0FB68DB6800E0274B68
:104DB000FA68D360002342E07B6A1B780133DAB2E1
:104DC0007B6A1A707B685A683B6BF86811463A6ACE
:104DD0009847034633E07B685B697A6852681278CB
:104DE0001A7097F8363003F00F03072B13D17B6846
:104DF0001A697B685B681B79104600211A46FBF72D
:104E00001BFA7B685B68D3F806207B681B69104639
:104E1000194600F049FA7B6859687B681A693B6B50
:104E2000F868984703460AE0FB68DB68002B02D06D
:104E3000FB68DB6800E0064BFA68D3600023184685
:104E40003837BD4680BD00BF203503089C350308B8
:104E5000AC35030880B485B000AFF8600B467A60CB
:104E6000FB72FB68DB68002B02D0FB68DB6800E0AC
:104E7000044BFA68D360002318461437BD465DF82A
:104E8000047B7047C035030890B597B000AFF86158
:104E90000B467A61FB767B691B697B657B6D04330E
:104EA0003B657B6D1B68002B06D1FB7EF8691946BC
:104EB000FFF7D4FD034663E0FB7E022B34D107F1FC
:104EC0004003F8691946FFF769FE034683F00103C2
:104ED000DBB2002B01D0002352E07B6D1B687A69A6
:104EE000526807F14001084611463A6D984703465B
:104EF00083F00103DBB2002B0BD0FB69DB68002BD6
:104F000002D0FB69DB6800E01F4BFA69D360002325
:104F100036E0BB6C002BE0D107F14003F86919467D
:104F2000FFF776FE01232BE00A233B62F97E07F1AF
:104F3000240207F12003F869FFF7D2FD034683F04E
:104F40000103DBB2002B01D0002319E03B6A394694
:104F500007F12402084611461A46FFF72DFC07F117
:104F600030043B460FCB84E80F007B6D1B687A69E9
:104F7000526807F13001084611463A6D98470346DA
:104F800018465C37BD4690BDD435030880B584B063
:104F900000AFF8600B467A60FB727B685B685B78F9
:104FA00003F0C003402B13D0802B09D0002B17D166
:104FB000FB7AF86819467A68FFF73CFE03461AE068
:104FC000FB7AF86819467A68FFF744FF034612E057
:104FD000FB7AF86819467A68FFF756FF03460AE03D
:104FE000FB68DB68002B02D0FB68DB6800E0044B49
:104FF000FA68D360002318461037BD4680BD00BF55
:10500000AC35030880B584B000AF786039603B6888
:105010001B689B68FB603B685B687868F9681A46A8
:1050200000F0DCFD3B685A687B681A613B6803F15D
:105030000C027B685A61FB685B7803F0C003802B2D
:1050400003D13B681A1D7B681A611037BD4680BDCD
:1050500080B58CB000AFF860B9607A60FB70BB6857
:105060001B689B68FB62FB6A1B781A467B689A4246
:1050700001D0012311E007F114031846B968FFF7C6
:10508000C1FFBB6801221A73FA7807F11403F868AC
:1050900011461A46FFF77AFF034618463037BD46D9
:1050A00080BD00BF90B589B000AFF860B9603B60CB
:1050B0001346FB713B681B691B68FB61FB689B68BF
:1050C0007B6122E0FB691B681B68002B0AD0FB692F
:1050D0001B681C68FB79F868F969BA68A047034641
:1050E000FB7607E0FB79F868F969BA68FFF7B0FF6B
:1050F0000346FB76FB7E83F00103DBB2002B01D07D
:1051000000230BE0FB699B68FB61FB69002B04D06B
:10511000FB689A687B699A42D4D0012318462437E9
:10512000BD4690BD80B584B000AF78607B685B6899
:10513000FB607B685B685B7803F00F03082B01D191
:10514000012308E0786800F07BFD7B685A68FB6803
:105150009A42EED1002318461037BD4680BD00BFED
:1051600080B58AB000AF78607B685B685B7887F851
:10517000223097F8223003F00F03082B19D17B68F7
:105180001B691B687B6210E07B6A00221A7307F1BF
:1051900008031846796AFFF735FF07F10803184638
:1051A000FFF7DEFF7B6A9B687B627B6A002BEBD19B
:1051B00077E097F8223003F0C003002B57D101238A
:1051C00087F8233097F8223003F03003102B04D1F6
:1051D0007B685B6900221A7012E097F8223003F0B6
:1051E0003003202B05D097F8223003F03003302B0A
:1051F00006D17B685B6900221A70002387F8233090
:1052000097F82330002B31D07B685B685B7803F024
:105210000F03072B0AD17B685B68D3F806207B68F5
:105220001B691046194600F03FF81FE07B685B6879
:10523000D3F80630002B0ED07B6819697B685B6859
:10524000D3F806207B685B681B79084611461A462E
:105250001BF070FA0AE07B681A697B685B681B794F
:10526000104600211A46FAF7E7FF1AE019E097F80E
:10527000223003F0C003802B13D17B681B6900220E
:105280001A6097F8223003F03003202B05D097F8EE
:10529000223003F03003302B03D17B685B6900229E
:1052A0001A702837BD4680BD80B588B000AF7860E1
:1052B000396007F10803184679683A6800F08EFCF7
:1052C000034683F00103DBB2002B0CD107F1080386
:1052D0001846FFF745FF07F10803184600F0B0FC39
:1052E0000346002BF2D12037BD4680BD80B594B077
:1052F00000AFF860B9607A60002387F8343000238B
:1053000087F83530002387F83630002387F83730A8
:10531000002387F83830002387F83930002387F8D6
:105320003A30002387F83B300023FB6407F11C036D
:105330001846B9687A6800F051FC91E007F117014E
:1053400007F1180207F11603F868FFF749FB034657
:1053500083F00103DBB2002B05D0BB7D002B00D016
:1053600083E00023D9E0BB6907F11C02104619460F
:1053700000F0E4FC034683F00103DBB2002B3FD0D6
:10538000BA69FB6C9A422DD307F11C031846FFF74C
:10539000C9FE034683F00103DBB2002B03D04FF0BC
:1053A000FF33FB6402E03B6A1B78FB64BA69FB6C69
:1053B0009A4217D3FB689B683B64B969FA7D07F191
:1053C0001C03F868FFF76EFE034683F00103DBB2AF
:1053D000002B01D00023A0E0FB689A683B6C9A4246
:1053E00000D03DE0FB7DF8681946FFF737FB034628
:1053F00083F00103DBB2002B01D000238DE02FE00E
:105400003B6A5B7803F03003002B19D17B6A3F2B9A
:1054100016D87B6ADB087A6AD20807F150010A4481
:1054200012F81C1C7A6A02F00702012000FA02F24C
:10543000D2B20A43D2B207F150010B4403F81C2C3C
:10544000FA7D07F11C03F86811461A46FFF79EFD26
:10545000034683F00103DBB2002B01D000235CE0A4
:10546000FB689B68002B7FF469AF7B6ABB643B6A77
:105470005B7887F83F3007F11C03184600F0E0FB2B
:105480000346002BF1D197F83F3003F03003002B97
:1054900006D13B6A1B78002B02D0BB6C0133BB6486
:1054A00000237B6415E007F134027B6C13441B7806
:1054B000FF2B0BD0FB68DB68002B02D0FB68DB689E
:1054C00000E0184BFA68D360002326E07B6C0133C0
:1054D0007B64BB6CDA087B6C9A42E4D8BB6CDB085B
:1054E00007F15002134413F81C3C1A46BB6C03F03E
:1054F0000703C3F108031946FF230B419A420BD05F
:10550000FB68DB68002B02D0FB68DB6800E0054B22
:10551000FA68D360002300E0012318465037BD46E7
:1055200080BD00BFE435030880B586B000AFF860E9
:10553000B9607A60B8687968FFF7B6FEF868B9684C
:105540007A68FFF7D3FE0346FB75FB7D18461837D4
:10555000BD4680BD80B584B000AF7860396007F18A
:10556000080378681946FFF79DF9034683F00103A5
:10557000DBB2002B01D0002321E0D7E902234FF05A
:1055800001004FF0000102EA000203EA01031343A5
:105590000CD0D7E902235B084FEA32026FEA02021D
:1055A0006FEA03033968C1E9002307E0D7E9022362
:1055B0005B084FEA32023968C1E90023012318462B
:1055C0001037BD4680BD00BF80B582B000AF7860A7
:1055D0003960786839680422FFF74AF803461846AC
:1055E0000837BD4680BD00BF80B582B000AF78608F
:1055F0003960786839680822FFF73AF80346184698
:105600000837BD4680BD00BF80B58AB000AFF860E6
:10561000B9607A6007F11003F8681946FFF742F99C
:10562000034683F00103DBB2002B01D0002377E0B7
:10563000BB681B79082B04D1D7E90423C7E90823E9
:1056400007E0D7E9042313461A464FEAE273C7E995
:105650000823BB681B79013B072B40D801A252F8F5
:1056600023F000BF855601089D560108DF5601084A
:10567000B3560108DF560108DF560108DF5601085E
:10568000C956010897F820207B681A707B681B7840
:105690005AB24FEAE273C7E906232CE03A8C7B68E2
:1056A0001A807B681B881AB24FEAE273C7E90623A7
:1056B00021E03A6A7B681A607B681B681A464FEAE9
:1056C000E273C7E9062316E07968D7E90823C1E940
:1056D00000237B68D3E90023C7E906230BE0FB68BE
:1056E000DB68002B02D0FB68DB6800E00E4BFA6839
:1056F000D360002314E0D7E90601D7E908239942D3
:1057000008BF90420BD0FB68DB68002B02D0FB681F
:10571000DB6800E0054BFA68D360002300E001235A
:1057200018462837BD4680BDFC35030810360308EF
:1057300080B588B000AFF860B9607A6007F11003F7
:10574000F8681946FFF7AEF8034683F00103DBB2B1
:10575000002B01D0002369E0BB681B79013B072BBC
:1057600043D801A252F823F089570108A357010832
:10577000EB570108BD570108EB570108EB5701082B
:10578000EB570108D5570108D7E90423D2B27B684B
:105790001A707B681B78DAB24FF00003C7E9062362
:1057A0002FE0D7E9042392B27B681A807B681B88BC
:1057B0009AB24FF00003C7E9062322E0D7E9042399
:1057C0007B681A607B681B681A464FF00003C7E9C4
:1057D000062316E0D7E904237968C1E900237B6832
:1057E000D3E90023C7E906230BE0FB68DB68002B45
:1057F00002D0FB68DB6800E00E4BFA68D360002340
:1058000014E0D7E90423D7E90601994208BF904282
:105810000BD0FB68DB68002B02D0FB68DB6800E084
:10582000054BFA68D360002300E0012318462037B7
:10583000BD4680BDFC3503081036030880B588B02E
:1058400000AFF860B9607A6007F11003F868194694
:10585000FFF780FE034683F00103DBB2002B01D08B
:10586000002369E0BB681B79013B072B43D801A2E9
:1058700052F823F095580108AF580108F75801086D
:10588000C9580108F7580108F7580108F7580108E6
:10589000E1580108D7E90423D2B27B681A707B680B
:1058A0001B785AB24FEAE273C7E906232FE0D7E923
:1058B000042392B27B681A807B681B881AB24FEA75
:1058C000E273C7E9062322E0D7E904237B681A6064
:1058D0007B681B681A464FEAE273C7E9062316E0A5
:1058E000D7E904237968C1E900237B68D3E9002361
:1058F000C7E906230BE0FB68DB68002B02D0FB68DE
:10590000DB6800E00E4BFA68D360002314E0D7E9AF
:105910000423D7E90601994208BF90420BD0FB68E7
:10592000DB68002B02D0FB68DB6800E0054BFA68FF
:10593000D360002300E0012318462037BD4680BD18
:10594000FC3503081036030880B584B000AFF8605A
:10595000B9607A60F8687968FFF736FE0346184642
:105960001037BD4680BD00BF80B584B000AFF86081
:10597000B9607A60F8687968FFF736FE0346184622
:105980001037BD4680BD00BF80B588B000AFF8605D
:10599000B9607A6007F11403F8681946FEF728FF2A
:1059A000034683F00103DBB2002B01D0002354E057
:1059B0007B69FF2B0BD9FB68DB68002B02D0FB68EF
:1059C000DB6800E0274BFA68D360002345E07B6981
:1059D0000133FB617A69FB699A420BD9FB68DB688A
:1059E000002B02D0FB68DB6800E01F4BFA68D36035
:1059F000002332E0BB685B7803F0C003802B0BD13F
:105A0000FB68DB68002B02D0FB68DB6800E0174B0B
:105A1000FA68D360002320E0BB681B791A46FB6953
:105A20009A420BD2FB68DB68002B02D0FB68DB6874
:105A300000E00C4BFA68D36000230EE07B68BB618A
:105A40007B69DAB2BB691A70BB695A1C7B69F8685A
:105A500011461A46FEF70CFE034618462037BD468F
:105A600080BD00BF2436030834360308C035030860
:105A700080B588B000AFF860B9607A6007F11403B0
:105A8000F8681946FEF7B4FE034683F00103DBB263
:105A9000002B01D0002344E07B690133FB617B696B
:105AA000FA699A420BD2FB68DB68002B02D0FB68D4
:105AB000DB6800E01D4BFA68D360002331E0BB686F
:105AC0005B7803F0C003802B0BD1FB68DB68002BF5
:105AD00002D0FB68DB6800E0154BFA68D360002356
