:020000040801F1
:100000000000022039C20108E51E0108C51E0108D2
:10001000051F0108251F0108451F010800000000F9
:10002000000000000000000000000000CDC9010831
:1000300099C2010800000000ADCB010805CC010801
:1000400099C2010899C2010899C2010899C2010820
:1000500099C2010899C20108495A0108555A010874
:10006000615A01086D5A0108795A0108DDFE01083C
:1000700021FF010865FF0108A9FF0108EDFF010844
:100080003100020875000208B956010899C201083A
:100090004957010899C2010899C20108855A010807
:1000A00099C2010899C2010899C2010899C20108C0
:1000B00099C20108E1050208F5050208C56E0108AC
:1000C000D16E0108AD6E0108B96E010899C2010830
:1000D00099C20108858A0108618A0108558A0108C8
:1000E000A95A010899C2010899C2010899C20108D8
:1000F000CD05020899C2010899C20108B900020899
:1001000099C2010899C20108B905020899C20108FB
:1001100099C201086D8A010809060208D17A01080E
:10012000FD0002084101020885010208C901020818
:100130000D02020899C2010899C2010899C201087A
:1001400099C2010899C2010899C2010899C201081F
:100150005102020895020208D9020208798A0108B0
:10016000DD6E0108E96E010899C2010899C2010813
:1001700099C2010899C2010899C2010899C20108EF
:1001800099C2010899C20108EFBEADDE10B5054C59
:10019000237833B9044B13B10448AFF30080012333
:1001A000237010BDA40A002000000000200A0308EC
:1001B000084B10B51BB108490848AFF30080084848
:1001C000036803B910BD074B002BFBD0BDE81040FE
:1001D000184700BF00000000A80A0020200A0308FA
:1001E000A00A00200000000070B50F4E0F4D761BD6
:1001F000B61018BF002405D0013455F8043B9847C9
:10020000A642F9D10A4E0B4D761B1BF0FDFDB61030
:1002100018BF002406D0013455F8043B9847A64285
:10022000F9D170BD70BD00BF5C0A00205C0A0020DF
:100230009C0A00205C0A002070B4840746D0541E3B
:10024000002A41D0CDB2034602E0621EE4B3144658
:1002500003F8015B9A07F8D1032C2ED9CDB245EAF9
:1002600005250F2C45EA054519D903F1100226464C
:10027000103E0F2E42F8105C42F80C5C42F8085C0D
:1002800042F8045C02F11002F2D8A4F1100222F04C
:100290000F0204F00F041032032C13440DD91E4634
:1002A0002246043A032A46F8045BFAD8221F22F0B9
:1002B00003020432134404F003042CB1C9B21C44F9
:1002C00003F8011BA342FBD170BC704714460346E0
:1002D000C2E700BF024B13B1024800F005B87047F7
:1002E00000000000F5020108002301461A461846E6
:1002F00000F014B838B5074D074C2C1BA41005D0DE
:10030000013C55F8043D9847002CF9D1BDE8384030
:100310001BF080BDA00A00209C0A00202DE9F047B8
:10032000254C2568D5F848410646884692469946A8
:10033000C4B360681F2817DC431C76B104EB80054A
:100340000122C5F888A0D4F8881182401143022EFA
:10035000C4F88811C5F808911ED00230636044F8D3
:1003600020800020BDE8F087144B03B34FF4C87021
:1003700019F0B2FD0446D0B1D5F84831002780E825
:100380008800C5F8484138460123C4F88871C4F88C
:100390008C71002EE1D0D1E7D4F88C110A43C4F857
:1003A0008C21DAE705F5A674C5F84841C1E74FF09E
:1003B000FF30BDE8F08700BF20BE0208D99E0208CA
:1003C00080B485B000AFF860B9607A603B607B684C
:1003D00018461437BD465DF8047B704780B485B07D
:1003E00000AFF860B9607A603B60002318461437AC
:1003F000BD465DF8047B704780B500AF084800F04B
:100400007BF9084802F082F809F0D2FD034619464C
:10041000054800F073FD4FF4FA7009F09FFDF0E716
:100420000C0F0020F40E002024BE020880B483B01C
:1004300000AF786039603B6818460C37BD465DF800
:10044000047B704780B483B000AF78607B68184647
:100450000C37BD465DF8047B704700BF80B483B0A5
:1004600000AF78607B6818460C37BD465DF8047BAA
:10047000704700BF80B483B000AF78607B68002213
:100480009A607B6818460C37BD465DF8047B704760
:1004900080B582B000AF78607B689B68002B07D086
:1004A0007B689B6879687A680846114603229847FA
:1004B0007B6818460837BD4680BD00BF80B483B056
:1004C00000AF78607B6818460C37BD465DF8047B4A
:1004D000704700BF80B582B000AF7860384801F047
:1004E000EDFF384801F0EAFF374801F0E7FF3448F4
:1004F00002F000F8334801F0FDFF334801F0FAFF45
:1005000007F0F8FA314802F029F8314803F0B6F95B
:10051000304803F0D1FC304803F0B0F92E4803F026
:1005200059FA00F0D1F82D4803F0A8F92B4803F050
:1005300051FA2A48002103F0E9FA08F077FE284B27
:10054000184608F089FC274B184608F085FC264B16
:10055000184608F081FC254B184608F07DFC08F091
:1005600071FE234802F05CFD224802F059FD22484A
:1005700002F056FD214802F053FD214802F050FDE3
:10058000204802F04DFD02F021F81F4802F05CF80F
:1005900004F0C6FD1D4804F0F5FA1D4804F0F2FA17
:1005A0001C4804F063FBC32009F0D8FC0B48012170
:1005B00003F0ACFA052009F0D1FC0837BD4680BD38
:1005C000F40E0020FC0E0020040F0020E00A0020A2
:1005D000C80A0020C40A0020D00A0020D80A00203F
:1005E0002C0D0020300D0020340D0020380D00208F
:1005F000F40A00205C0B0020C40B00202C0C00200F
:10060000940C0020E00C0020CC0D00204C0D0020AC
:100610007C0D0020AC0D002080B582B000AF78606A
:10062000786819F059FC034618460837BD4680BD66
:1006300080B582B000AF7860786819F055FC083753
:10064000BD4680BD80B582B000AF78600CF056FA30
:10065000074B1B68002B01D10DF024FB044B1B68DA
:100660000133034A13600CF071FA0837BD4680BDB0
:10067000E40A002080B582B000AF7860064B1B68AA
:10068000013B054A1360044B1B68002B01D10DF0A0
:1006900017FB0837BD4680BDE40A002080B582B054
:1006A00000AF7860786819F017FC034618460837E1
:1006B000BD4680BD80B582B000AF7860786819F023
:1006C00013FC0837BD4680BD80B500AF024801214C
:1006D00003F01CFA80BD00BFD00A002080B400AF38
:1006E000034B044A1A60BD465DF8047B704700BFA7
:1006F0003C0400200C0F002080B483B000AF786071
:100700007B68002B03D0064A7B68136002E0044B31
:10071000044A1A600C37BD465DF8047B704700BF81
:10072000380400203404002080B582B000AF786027
:100730003960084B1B681B6808331B68054A126840
:10074000104679683A689847034618460837BD4608
:1007500080BD00BF380400200FB480B582B000AF68
:1007600007F114037B603869796800F009F80346E3
:1007700018460837BD46BDE8804004B0704700BF4A
:1007800080B582B000AF78603960084B1B681B6889
:1007900008331B68054A1268104679683A6898471A
:1007A000034618460837BD4680BD00BF3C04002004
:1007B0000FB480B582B000AF07F114037B603869D5
:1007C000796800F017F8034618460837BD46BDE8BB
:1007D000804004B0704700BF80B582B000AF0346D0
:1007E0003960FB71FB79184607F096FC0837BD4667
:1007F00080BD00BF90B593B000AF7860396007F15D
:100800000803184679683A6800F004FB0C4B7B64D7
:1008100007F1080207F144031046194600F096F864
:1008200007F10803184600F029FB044607F1080306
:10083000184600F011FB234618464C37BD4690BDC4
:10084000D907010880B584B000AF78600023FB6051
:1008500009E0FB687A6813441B78184607F05CFCD3
:10086000FB680133FB60FB687A6813441B78002B3C
:10087000EFD11037BD4680BD80B400AF034B4AF6C0
:10088000AA221A60BD465DF8047B70470030004024
:1008900080B582B000AF0CF07BF900237B6046206E
:1008A00004F0A0FD7B6803F00103002B14BF0123BB
:1008B0000023DBB20F48194601F034FE7B6803F0D9
:1008C0000103002B0CBF01230023DBB20A481946A9
:1008D00001F028FE7B6803F00203002B14BF012304
:1008E0000023DBB20548194601F01CFE7B6801338A
:1008F0007B60D4E7F40E0020FC0E0020040F0020E3
:1009000080B483B000AF78607B6818460C37BD4672
:100910005DF8047B704700BF80B483B000AF78609F
:100920007B6818460C37BD465DF8047B704700BFF6
:1009300080B582B000AF78607B681846FFF7A8FDED
:100940007B6818460837BD4680BD00BF80B586B0BD
:1009500000AF786039603868FFF7DEFF03461B6838
:1009600007F108021046194600F034F807F10803B1
:100970001846796800F05AF807F108031846FFF79F
:10098000D7FF7B6818461837BD4680BD80B483B05A
:1009900000AF78607B6818460C37BD465DF8047B75
:1009A000704700BF80B582B000AF78607868FFF70D
:1009B000EDFF7B6818460837BD4680BD80B483B024
:1009C00000AF78607B6818460C37BD465DF8047B45
:1009D000704700BF90B583B000AF78603960786829
:1009E000FFF7E0FF7B681846FFF744FD3B461846DB
:1009F00000F098F80346002B0FD07C683B46184661
:100A0000FFF7DCFF03462046194600F09DF87B689F
:100A1000044ADA607B68044A9A607B6818460C379F
:100A2000BD4690BD850B0108C50B010880B582B09D
:100A300000AF786039607A683B681046194600F06C
:100A400021F87B6803F108023B6808331046194619
:100A500000F04AF87B6803F10C023B680C33104647
:100A6000194600F0E3F80837BD4680BD80B483B076
:100A700000AF78607B6818460C37BD465DF8047B94
:100A8000704700BF80B584B000AF78603960786887
:100A9000FFF7ECFF024607F1080392E8030083E842
:100AA00003003868FFF7E2FF02467B6892E8030024
:100AB00083E8030007F108031846FFF7D7FF024653
:100AC0003B6892E8030083E803001037BD4680BD11
:100AD00080B483B000AF78607B6818460C37BD46A1
:100AE0005DF8047B704700BF80B584B000AF7860CC
:100AF00039607868FFF7ECFF03461B68FB603868D5
:100B0000FFF7E6FF03461A687B681A6007F10C03DB
:100B10001846FFF7DDFF03461A683B681A60103776
:100B2000BD4680BD80B483B000AF78607B681B6831
:100B3000002B14BF01230023DBB218460C37BD463F
:100B40005DF8047B704700BF90B585B000AF78605A
:100B500039603868FFF732FF034678681946224645
:100B600000F082F81437BD4690BD00BF80B483B05A
:100B700000AF78607B6818460C37BD465DF8047B93
:100B8000704700BFB0B584B000AFF8600B467A6024
:100B9000FB72F86800F082F803461C6807F10B034B
:100BA0001846FFF7E3FF03461D783B1D1846FFF785
:100BB000A7FE03461B6828461946A0471037BD46C6
:100BC000B0BD00BFB0B586B000AFF860B9601346E5
:100BD000FB71FB79022B0DD0032B11D0012B14D10B
:100BE000F86800F06DF80446B86800F057F803465E
:100BF00023600AE0F868B9682A4600F06DF804E05E
:100C0000F868214600F082F800BF00231846183724
:100C1000BD46B0BD80B483B000AF78607B68184635
:100C20000C37BD465DF8047B704700BF80B584B0CB
:100C300000AF786039607868FFF7ECFF03461B6807
:100C4000FB603868FFF7E6FF03461A687B681A60A6
:100C500007F10C031846FFF7DDFF03461A683B68EF
:100C60001A601037BD4680BD90B585B000AFF86002
:100C7000B9603A71B868FFF7A1FE03461C68F868CE
:100C8000FFF7E0FB034604201946FFF7CFFB0346BE
:100C9000002B00D01C601437BD4690BD80B584B0D9
:100CA00000AF7860786800F03DF80346184600F021
:100CB00045F8F860FB6818461037BD4680BD00BF98
:100CC00080B582B000AF78607868FFF7BBFB034661
:100CD00018460837BD4680BD90B585B000AFF860B6
:100CE000B9603A71B86800F01DF803461C68F868EE
:100CF000FFF7A8FB034604201946FFF797FB0346BE
:100D0000002B00D01C601437BD4690BD80B582B06A
:100D100000AF78603970786800F01CF80837BD467D
:100D200080BD00BF80B582B000AF78607868FFF703
:100D300095FB034618460837BD4680BD80B483B096
:100D400000AF78607B6818460C37BD465DF8047BC1
:100D5000704700BF80B582B000AF78607868FFF759
:100D600071FB034618460837BD4680BD80B582B08A
:100D700000AF786039607B68012B16D13B684FF675
:100D8000FF72934211D10A48FFF798FB094861218D
:100D900003F05AF80848372102F000FE07485B21AB
:100DA00002F0FCFD064801F0CDFB0837BD4680BDD2
:100DB000C00A0020C40A0020D00A0020D80A00205F
:100DC000E00A002080B500AF01204FF6FF71FFF769
:100DD000CDFF80BD80B483B000AF78607B689B6836
:100DE000002B0CBF01230023DBB218460C37BD4695
:100DF0005DF8047B704700BF80B582B000AF7860BB
:100E00007B681846FFF744FB7B6818460837BD46E9
:100E100080BD00BF80B584B000AFF860B9607A6073
:100E2000FB68184600F0F4F8FB681033184600F031
:100E30000BF9FB68BA681A62FB6800229A62FB68C9
:100E40000022DA62FB6824337A681A60FB6818466D
:100E50001037BD4680BD00BF80B582B000AF78605E
:100E60007B6810331846FFF7C7FF7B681846FFF70B
:100E70005FFD7B6818460837BD4680BD80B584B0ED
:100E800000AF78607B685B6ABB607B6800221A6396
:100E90007B681B6A78681946BA6800F041FEF86002
:100EA000786800F005F8FB6818461037BD4680BD2D
:100EB00080B582B000AF78607B689B6A002B03D05E
:100EC0007B681B6B002B00D115E07B681033184644
:100ED00000F0CAF80346002B0AD07B6803F110002B
:100EE0007B68996A7B681A6B7B689B6B00F0E4F8FF
:100EF0007B6800221A630837BD4680BD0FB480B5F9
:100F000082B000AF07F114037B6038697968FFF79E
:100F10000BFC034618460837BD46BDE8804004B0C8
:100F2000704700BF0EB480B585B000AF786007F1A0
:100F30002003FB6078684FF0FF31FA69FB6800F02E
:100F400031F8034618461437BD46BDE8804003B06B
:100F5000704700BF80B485B000AFF8600B467A6080
:100F6000FB72FB689B68B3F1FF3F08D0FB681B680E
:100F70001A68FB689B68013B9A4200D10DE0FB6850
:100F80005B681A68FB681B681B681344FA7A1A705E
:100F9000FB681B681A6801321A601437BD465DF899
:100FA000047B704790B599B000AFF860B9607A6083
:100FB0003B6007F11403184679683A68FFF72AFF87
:100FC00000233B6507F150037B6507F10C03BB650C
:100FD000BB68FB6507F1140207F15403104619467C
:100FE00000F0A6F807F114031846FFF747FFFA6868
:100FF0003B6D134400221A703B6D1C4607F114032D
:101000001846FFF729FF234618466437BD4690BDB2
:1010100080B582B000AF78607868FFF7C3FC7B686A
:101020001846FFF727FA7B6818460837BD4680BD8B
:1010300080B483B000AF78607B6818460C37BD463B
:101040005DF8047B704700BF80B582B000AF786068
:101050007868FFF7EDFF7B681846FFF70BFA7B68AF
:1010600018460837BD4680BD80B582B000AF7860B5
:101070007B681846FFF7AEFE034683F00103DBB240
:1010800018460837BD4680BD80B483B000AF786095
:101090007B6818460C37BD465DF8047B704700BF7F
:1010A00080B483B000AF78607B6818460C37BD46CB
:1010B0005DF8047B704700BF2DE9F04184B000AFBC
:1010C000F860B9607A603B60FB681846FFF782FE03
:1010D0000346002B01D00FF05BFDFB68DC68D7F8FE
:1010E0000C8007F108031846FFF7CEFF03461E6881
:1010F0003B1D1846FFF7D4FF03461D683B461846C4
:10110000FFF7FEFB03461B68404631462A46A047D0
:101110001037BD46BDE8F08180B483B000AF786081
:101120007B6818460C37BD465DF8047B704700BFEE
:1011300080B586B000AF786039603868FFF7ECFFA3
:10114000034607F1080210460ECB00F01DF807F128
:10115000080318467968FFF769FC07F10803184689
:10116000FFF7E6FB7B6818461837BD4680BD00BF19
:1011700080B483B000AF78607B6818460C37BD46FA
:101180005DF8047B704700BF90B585B000AFF86094
:10119000384680E80E00F868FFF704FCFB68184644
:1011A000FFF768F93B46184600F01CF80346002B91
:1011B0000FD0FC683B461846FFF7DAFF034620468F
:1011C000194600F01BF8FB68044ADA60FB68044A21
:1011D0009A60FB6818461437BD4690BD211201087D
:1011E0006112010880B483B000AF78600123184613
:1011F0000C37BD465DF8047B704700BF90B585B0E5
:1012000000AF786039603868FFF7B2FF034678684E
:101210001946224600F04CF81437BD4690BD00BF79
:10122000B0B584B000AFF8600B467A60FB72F86826
:1012300000F05AF8054607F10B031846FFF796FC35
:1012400003461C783B1D1846FFF75AFB03461B68F4
:10125000284621461A46FFF77DFE1037BD46B0BD31
:10126000B0B586B000AFF860B9601346FB71FB798A
:10127000022B0DD0032B11D0012B14D1F86800F0F4
:1012800043F80446B86800F02FF8034623600AE0EC
:10129000F868B9682A4600F043F804E0F868214687
:1012A00000F05AF800BF002318461837BD46B0BDFD
:1012B000B0B584B000AFF860B9603A71B868FFF7B4
:1012C00057FF05460C200FF0C7FA044623462A466E
:1012D00007CA83E80700F86800F016F803461C60A8
:1012E0001037BD46B0BD00BF80B584B000AF786098
:1012F000786800F041F803461B68FB60FB681846FD
:101300001037BD4680BD00BF80B582B000AF7860A9
:101310007868FFF797F8034618460837BD4680BD42
:10132000B0B584B000AFF860B9603A71B86800F049
:1013300023F803461D680C200FF08EFA044623465E
:101340002A4607CA83E80700F868FFF7DDFF03466F
:101350001C601037BD46B0BD80B582B000AF78606C
:1013600039707868FFF7D0FF03461B6818460FF006
:1013700071FA0837BD4680BD80B582B000AF786095
:101380007868FFF76BF8034618460837BD4680BDFE
:1013900080B582B000AF78607B681B6808331B683B
:1013A00078689847034618460837BD4680BD00BF99
:1013B00080B582B000AF786039607B681B680C3301
:1013C0001B68786839689847034618460837BD4651
:1013D00080BD00BF80B582B000AF786039607B68A7
:1013E0003A681A6038684FF0FF31FFF7E1FF7B6819
:1013F00018460837BD4680BD80B582B000AF786022
:101400007B681B681846FFF7C3FF7B6818460837E0
:10141000BD4680BD80B584B000AFF8600B467A60F1
:10142000FB72FB7A7868194600F03AF81037BD462F
:1014300080BD00BF90B597B000AFF860B9607A602A
:1014400007F14C0318461549FFF7C4FF07F11003D5
:101450001846B9687A68FFF7DDFCFB68BB6407F1E2
:10146000100207F150031046194600F03BF807F14F
:1014700010031846FFF702FD78657C6D07F1100335
:101480001846FFF7E9FC07F14C031846FFF7B4FFD5
:10149000234618465C37BD4690BD00BFE80A0020D1
:1014A00090B585B000AF78600B46FB707B681B6819
:1014B0001C68FB1C7868194601224FF0FF33A047D7
:1014C000F860FB6818461437BD4690BD80B483B001
:1014D00000AF78607B6818460C37BD465DF8047B2A
:1014E000704700BF90B587B000AF7860396038684A
:1014F000FFF7ECFF07F108031846214600F01CF83F
:1015000007F1080318467968FFF790FA07F1080316
:101510001846FFF70DFA7B6818461C37BD4690BD8C
:1015200080B483B000AF78607B6818460C37BD4646
:101530005DF8047B704700BF90B583B000AF786062
:1015400039707868FFF72EFA7B681846FEF792FF2D
:101550003B46184600F01CF80346002B0FD07C6871
:101560003B461846FFF7DCFF03462046194600F0CD
:101570001BF87B68044ADA607B68044A9A607B68DF
:1015800018460C37BD4690BDCD1501080D16010853
:1015900080B483B000AF7860012318460C37BD4695
:1015A0005DF8047B704700BF90B585B000AF7860F0
:1015B00039603868FFF7B4FF034678681946224659
:1015C00000F04CF81437BD4690BD00BFB0B584B0F4
:1015D00000AFF8600B467A60FB72F86800F054F8D0
:1015E000054607F10B031846FFF7C0FA03461C78BF
:1015F0003B1D1846FFF784F903461B682846214621
:101600001A46FFF707FF1037BD46B0BDB0B586B02C
:1016100000AFF860B9601346FB71FB79022B0DD067
:10162000032B11D0012B14D1F86800F03DF80446CB
:10163000B86800F029F8034623600AE0F868B96842
:101640002A4600F03DF804E0F868214600F04EF824
:1016500000BF002318461837BD46B0BD90B585B011
:1016600000AFF860B9603A71B868FFF759FF012020
:101670000FF0F2F80446F86800F016F803461C6014
:101680001437BD4690BD00BF80B584B000AF786010
:10169000786800F03BF803461B68FB60FB6818465F
:1016A0001037BD4680BD00BF80B582B000AF786006
:1016B0007868FEF7C7FE034618460837BD4680BD6A
:1016C00090B585B000AFF860B9603A71B86800F0C5
:1016D0001DF801200FF0C0F80446F868FFF7E4FF9A
:1016E00003461C601437BD4690BD00BF80B582B074
:1016F00000AF786039707868FFF7D6FF03461B6843
:1017000018460FF0A7F80837BD4680BD80B582B0F7
:1017100000AF78607868FEF7A1FE034618460837E8
:10172000BD4680BD80B582B000AF786039607B680F
:10173000012B0DD13B684FF6FF72934208D106484A
:10174000002108F0F3F804480449054A0FF07CF83A
:101750000837BD4680BD00BFE80A0020A9990108EE
:101760000000002080B500AF01204FF6FF71FFF7A9
:10177000D9FF80BD80B582B000AF786039607B68EA
:10178000002B09D079683B68DAB27B689B6B08460E
:1017900011461A4600F0E0FA0837BD4680BD00BF8A
:1017A00080B588B000AFF860B9607A603B60002314
:1017B000FB612023BB617B68002B20DD00237B6164
:1017C000BB683B6105E07B6901337B613B690133A9
:1017D0003B613B691B78002BF5D17A697B689A42A3
:1017E00002DB00237B6003E07A687B69D31A7B60AD
:1017F0003B6803F00203002B01D03023BB613B6840
:1018000003F00103002B0DD109E0F868B969FFF777
:10181000B1FFFB690133FB617B68013B7B607B6847
:10182000002BF2DC0BE0BB681B78F8681946FFF769
:10183000A1FFFB690133FB61BB680133BB60BB687F
:101840001B78002BEFD109E0F868B969FFF792FF28
:10185000FB690133FB617B68013B7B607B68002B8C
:10186000F2DCFB6918462037BD4680BD80B58CB0E0
:1018700000AFF860B9607A603B6000237B620023B0
:101880003B62BB68FB61BB68002B0DD130233B740E
:1018900000237B7407F11003F8681946BA6BFB6BE1
:1018A000FFF77EFF03465BE03B68002B0AD07B68B6
:1018B0000A2B07D1BB68002B04DA01237B62BB68CB
:1018C0005B42FB6107F110030B33FB62FB6A0022F2
:1018D0001A701DE07A68FB69B3FBF2F102FB01F2BA
:1018E0009B1ABB62BB6A092B04DD3B6C3A3BBA6AAC
:1018F0001344BB62FB6A013BFB62BB6ADBB2303361
:10190000DAB2FB6A1A707B68FA69B2FBF3F3FB6127
:10191000FB69002BDED17B6A002B18D0BB6B002B40
:101920000FD0FB6B03F00203002B0AD0F8682D21C7
:10193000FFF720FF3B6A01333B62BB6B013BBB639C
:1019400005E0FB6A013BFB62FB6A2D221A70F86816
:10195000F96ABA6BFB6BFFF723FF02463B6A13443D
:1019600018463037BD4680BDB0B590B004AF786141
:1019700087ED020B39617A600023FB623B69092B1A
:1019800001DD09233B61D7E902014FF000024FF06E
:10199000000317F04DF80346002B0DD078692D2178
:1019A000FFF7E8FEFB6A0133FB62BB68BB60FB68C4
:1019B00083F00043FB6009E07B68012B06D1786966
:1019C0002021FFF7D7FEFB6A0133FB62514BBB625C
:1019D00006237B623B69002B17D03B693B620A23DD
:1019E000BB6205E0BA6A13469B0013445B00BB620E
:1019F0003B6A013B3B623B6A002B14BF012300237F
:101A0000DBB2002BEED13B697B62D7E9020117F014
:101A100037F80346FB61F86916F032FD02460B46C3
:101A2000D7E9020116F0DEFB02460B4614461D46BE
:101A3000B86A16F025FD02460B462046294616F0E8
:101A400085FD02460B46104619464FF00002324B08
:101A500016F07CFD02460B461046194617F010F8AA
:101A60000346BB61B9692D4B83FB01239A10CB1749
:101A7000D21A13469B0013445B00CA1A042A14DDD1
:101A8000BB69264A82FB03129210DB17D31ABB6193
:101A9000BB690133BB61BA69BB6A9A420DD10023AD
:101AA000BB61FB690133FB6107E0BB691B4A82FB39
:101AB00003129210DB17D31ABB610023009300239B
:101AC0000193612302937869F9690A220023FFF7E1
:101AD000CDFE0246FB6A1344FB6278692E21FFF7B4
:101AE00049FEFB6A0133FB627B6A00930223019388
:101AF000612302937869B9690A220023FFF7B6FED1
:101B00000246FB6A1344FB62FB6A18463037BD4647
:101B1000B0BD00BF40420F0000002440676666660B
:101B200080B58EB004AFF860B9607A600023FB61C5
:101B300005E1BB681B78252B40F0F580BB680133BD
:101B4000BB6000233B623B6A7B62BB681B78002B57
:101B500000D1F9E0BB681B78252B00D1E3E0BB681E
:101B60001B782D2B04D1BB680133BB6001233B6282
:101B700006E0BB680133BB603B6A43F002033B6293
:101B8000BB681B78302BF4D00EE07A6A13469B00BA
:101B900013445B007B62BB681B78303B7A6A13445A
:101BA0007B62BB680133BB60BB681B782F2B03D9FA
:101BB000BB681B78392BE8D9BB681B78732B15D110
:101BC0007B681A1D7A601B68BB61BB69002B01D062
:101BD000BB6900E05F4BF86819467A6A3B6AFFF719
:101BE000DFFD0246FB691344FB61A5E0BB681B787F
:101BF000642B14D17B681A1D7A601A687B6A009383
:101C00003B6A019361230293F86811460A2201237B
:101C1000FFF72CFE0246FB691344FB618CE0BB68B6
:101C20001B78782B03D0BB681B78702B14D17B6892
:101C30001A1D7A601A687B6A00933B6A01936123DC
:101C40000293F868114610220023FFF70FFE0246A8
:101C5000FB691344FB616FE0BB681B78582B14D100
:101C60007B681A1D7A601A687B6A00933B6A01934D
:101C700041230293F868114610220023FFF7F6FD76
:101C80000246FB691344FB6156E0BB681B78752B69
:101C900014D17B681A1D7A601A687B6A00933B6ACC
:101CA000019361230293F86811460A220023FFF78B
:101CB000DDFD0246FB691344FB613DE0BB681B7818
:101CC000662B16D17B68073323F0070303F1080264
:101CD0007A6093ED007BF868B0EE470AF0EE670A91
:101CE000796A3A6AFFF740FE0246FB691344FB61DA
:101CF00022E0BB681B78632B14D17B681A1D7A60C5
:101D00001B68DBB23B7500237B7507F11403F86891
:101D100019467A6A3B6AFFF743FD0246FB691344A2
:101D2000FB6109E008E0BB681B78F8681946FFF71B
:101D300021FDFB690133FB61BB680133BB60BB68FC
:101D40001B78002B7FF4F5AEFB6918462837BD469B
:101D500080BD00BF5CBE0208F0B585B000AFF86082
:101D60000B467A60FB72FB681846FFF733F80346B0
:101D7000002B01D00EF00CFFFB68DC68FE6807F159
:101D80000B031846FEF7F2FE03461D783B1D18466E
:101D9000FEF7B6FD03461B68304629461A46A047A3
:101DA0001437BD46F0BD00BF80B582B000AF78608B
:101DB0007B681846FEF76CFB7B6818460837BD4603
:101DC00080BD00BF80B582B000AF786039603B68ED
:101DD0001A687B681A607B681B68183B1B681A4688
:101DE0007B6813443A6852681A600023002B02D0C3
:101DF00078680EF02FFD7B6818460837BD4680BD19
:101E000080B500AF03F02EFB08484FF4E12100221B
:101E1000002300F0D9FC064806490022002300F008
:101E2000D3FC0248FEF768FC80BD00BF0C0F002009
:101E3000B40D002020A1070080B582B000AF78600B
:101E4000064800F04BFBFFF7DBFF0DF0BDFA00206A
:101E50000BF01EFE0837BD4680BD00BFF40E00200B
:101E600080B584B004AF4FF4407008F04DF94FF4E2
:101E70008000012109F09CFB4FF40010012109F0C2
:101E800097FB0D4B01221A6004230093002301935A
:101E90000023029300230393084809494FF4C872B2
:101EA00000230BF02DFD0346012B0BF0B9FE0023A0
:101EB0001846BD4680BD00BF240F0020391E010812
:101EC00064BE020880B500AF044B1B68012B02D131
:101ED0000348FEF7B7FCFEF7DBFC80BD240F0020B3
:101EE0006CBE020880B500AF044B1B68012B02D109
:101EF0000348FEF7A7FCFEF7CBFC80BD240F0020B3
:101F000080BE020880B500AF044B1B68012B02D1D4
:101F10000348FEF797FCFEF7BBFC80BD240F0020B2
:101F200090BE020880B500AF044B1B68012B02D1A4
:101F30000348FEF787FCFEF7ABFC80BD240F0020B2
:101F4000A4BE020880B500AF044B1B68012B02D170
:101F50000348FEF777FCFEF79BFC80BD240F0020B2
:101F6000B8BE020880B582B000AF7860104A7B68C6
:101F70001A6000227B6813440D4A1A6000227B68B5
:101F800013440B4A1A600223002B05D07B68094AD0
:101F900018461146FFF716FF0023002B02D0786881
:101FA0000EF058FC7B6818460837BD4680BD00BF60
:101FB00054BF020884BF020880B582B000AF7860C9
:101FC0007B681B681C3B1B681A467B6813441846D9
:101FD000FFF7C8FF034618460837BD4680BD00BF5F
:101FE00080B582B000AF78600B4A7B681A6000222F
:101FF0007B681344084A1A6064227B681344074ACA
:102000001A607B684C331846FFF7ACFF7B681846B4
:102010000837BD4680BD00BF3CC00208ACC0020806
:1020200080B582B000AF78607B681C331846FFF73C
:10203000BBFE7B680C331846FFF7B6FE7B6818467C
:102040000837BD4680BD00BF80B582B000AF786064
:102050007B684C331846FFF785FF7B6818460837C6
:10206000BD4680BD80B582B000AF78607B68084A0D
:102070001A607B6818460DF089F90023002B02D006
:1020800078680EF0E7FB7B6818460837BD4680BDD0
:1020900048D5020880B582B000AF78607868FFF755
:1020A000E1FF78680EF0D6FB7B6818460837BD461E
:1020B00080BD00BF80B582B000AF78607B686433BC
:1020C0001846FFF7CFFF7B6850331846FFF7CAFF6B
:1020D0007B683C331846FFF7C5FF7B6828331846FA
:1020E000FFF7C0FF7B6814331846FFF7BBFF7B6820
:1020F0001846FFF7B7FF7B6818460837BD4680BD16
:1021000080B582B000AF786039607B68012B40F009
:1021100093803B684FF6FF72934240F08D804848B1
:10212000002101F01FF84748012101F01BF8464843
:10213000022101F0B9F844484449454A0EF084FBB5
:102140004448032101F0B0F842484049404A0EF0AB
:102150007BFB4148042100F0E3FF4048052100F0EB
:10216000DFFF3F48002106F057FE3E48012106F000
:1021700053FE3D48022106F04FFE3C48032106F085
:102180004BFE374A3A4B1A60364A394B5A60364A48
:10219000374B9A60354A364BDA603648002102F0F8
:1021A000ABFC344834492A4A0EF04EFB3348012137
:1021B00002F0A2FC31483049254A0EF045FB304878
:1021C000022102F03BFD2F48042100F0AFFA2D4818
:1021D0002D491F4A0EF038FB2C4800F0FDF92B4822
:1021E0002B491B4A0EF030FB2A4800F067FA2A48B8
:1021F00002F06AFF28482949154A0EF025FB2848B5
:1022000001F08AFA26482749114A0EF01DFB26489C
:10221000002100F03DF92548012100F039F924485A
:10222000022100F035F92348002100F07FFA21480F
:102230001549074A0EF008FB0837BD4680BD00BFB0
:10224000F40A00205C0B0020C40B0020E11F0108F1
:10225000000000202C0C0020940C0020E00C00203A
:102260002C0D0020300D0020340D0020380D0020F2
:102270003C0D00204C0D0020212001087C0D002089
:10228000AC0D0020B40D0020651F0108CC0D00200E
:1022900049200108700E0020780E0020B5200108AA
:1022A000F00E002061370108F40E0020FC0E002023
:1022B000040F00200C0F002080B500AF01204FF666
:1022C000FF71FFF71DFF80BD80B584B000AF78605F
:1022D000104B1B68002B02D10E4B0F4A1A600D4B9E
:1022E0001B68FB600B4B1A687B681344094A136038
:1022F000084B1B6803F58073084A934204DD0848C5
:1023000003F020F802F0DCFFFB6818461037BD46EA
:1023100080BD00BF280F0020F03200200000022006
:10232000D0BE020880B483B000AF78604FF0FF33B6
:1023300018460C37BD465DF8047B704780B483B007
:1023400000AF786039603B684FF400525A60002358
:1023500018460C37BD465DF8047B704780B483B0E7
:1023600000AF7860012318460C37BD465DF8047B4A
:10237000704700BF80B485B000AFF860B9607A6084
:10238000002318461437BD465DF8047B704700BF34
:1023900080B584B000AFF860B9607A60FB68002B4C
:1023A00005D1B868012102F0EFFF034600E00023E9
:1023B00018461037BD4680BD80B584B000AFF860C8
:1023C000B9607A60FB68012B05D1B868796800F0C4
:1023D00019F8034600E0002318461037BD4680BDBB
:1023E00090B585B000AF064B3C460FCB07C42380A9
:1023F0003B4618460E2100F005F802F061FF00BFD1
:10240000E8BE020880B586B000AF7860396000236E
:102410007B6100233B6130E03A693B689A420FD10F
:102420003A697B69D31AFB60FB68002B07DD7B6987
:102430007A6813441846F96802F08EFF1AE019E032
:102440003B697A6813441B780A2B13D13A697B697C
:10245000D31ABB607B697A6813441846B96802F0E6
:102460007BFF0A48022102F077FFBB6801337A69DB
:1024700013447B613B6901333B613A693B689A4293
:10248000CADD3B6818461837BD4680BD08BF020844
:1024900080B582B000AF78600B46FB707968FB783E
:1024A000054AD35C0846194601F078FA7B6818465D
:1024B0000837BD4680BD00BF0CBF020880B582B0A2
:1024C00000AF78607B68184601F0D8F97B68184641
:1024D00001F080FA0837BD4680BD00BF80B582B0EC
:1024E00000AF78607B681846012101F00FFB0837C8
:1024F000BD4680BD80B582B000AF78607B6818466D
:10250000002101F003FB0837BD4680BD80B582B0D5
:1025100000AF78607B68184601F008FB0837BD46BD
:1025200080BD00BF80B582B000AF78600B46FB7005
:102530007A68FB781046194601F0E8FA0837BD467C
:1025400080BD00BF80B483B000AF78607B68184660
:102550000C37BD465DF8047B704700BF80B582B084
:1025600000AF786008F0BCFBF32008F073FC09F0C2
:1025700077FF08F0CBFB0837BD4680BD80B582B041
:1025800000AF786039607B68012B0DD13B684FF656
:10259000FF72934208D10648002107F0C7F90448AA
:1025A0000449054A0EF050F90837BD4680BD00BF0A
:1025B0002C0F0020A99901080000002080B500AF71
:1025C00001204FF6FF71FFF7D9FF80BD80B400AF47
:1025D000BD465DF8047B704780B582B000AF78607F
:1025E0007B681846182101F0E9FC7B681433184613
:1025F000192101F0E3FC7B68283318461A2101F009
:1026000023FC7B68343318461B2101F01DFC7B68DA
:10261000403318461C2101F017FC7B684C331846E8
:10262000012100F083F87B6864331846002100F034
:10263000CFFF7B688C331846022100F0EDFE7B68EB
:1026400018460837BD4680BD80B582B000AF7860BF
:102650007B686433184601F001F87B688C331846B8
:1026600042F2107100F00CFF7B680433184601F051
:1026700011F97B681833184601F00CF97B682C338C
:10268000184601F0FBF87B683833184601F0F6F87D
:102690007B684433184601F0F1F87B684C331846E8
:1026A0004FF461310022002300F08EF8024802F05E
:1026B00035FE0837BD4680BD10BF020880B582B028
:1026C00000AF78607B6818462E2101F067F97B68BF
:1026D00018460837BD4680BD80B483B000AF78602F
:1026E0007B68044A1A607B6818460C37BD465DF863
:1026F000047B704750BE020880B483B000AF78609E
:1027000039603B681A687B681A607B681B68183BF5
:102710001B681A467B6813443A6852681A607B68E3
:1027200018460C37BD465DF8047B704780B582B013
:1027300000AF78600B46FB707B681846FFF7CCFF54
:102740007B681E4A18461146FFF7D6FF1C4A7B6875
:102750001A6000227B681344194A1A6000227B68C1
:102760001344174A1A607B68191DFB78154ADB0071
:1027700013441B790846194601F010F97B6803F1F0
:102780000C01FB780F4ADB0013445B7908461946BD
:1027900001F004F91420FDF73FFF02467B685A61FF
:1027A0007B685B6900221A747B685B69FA781A702F
:1027B0007B6818460837BD4680BD00BF84BF02084D
:1027C00054BF0208C8BF020890B587B002AFF860D6
:1027D000B9607A603B60FB685B697A689A60FB6805
:1027E0005B693A68DA60FB685B69BA685A60FB68E3
:1027F0005B691878FB685B695968FB685B699B6873
:10280000DAB2FB685B69DB68DCB200230093234625
:1028100005F0A8F91437BD4690BD00BF80B586B05D
:1028200000AFF860B9607A603B607B68002B01D133
:1028300000230BE0FB685B691A787B681046B96877
:102840001A463B6805F010FC78617B69184618371A
:10285000BD4680BD80B586B000AFF860B9607A60D3
:102860003B60FB685B691A787B681046B9681A465A
:102870003B6805F021FC78617B6918461837BD4636
:1028800080BD00BF90B585B002AF786039607B68CD
:102890005B693A685A607B685B6918787B685B693A
:1028A00059687B685B699B68DAB27B685B69DB6847
:1028B000DCB200230093234605F054F90C37BD46E3
:1028C00090BD00BF80B582B000AF78607B685B6967
:1028D0001B78184605F06CFF0837BD4680BD00BF69
:1028E00080B582B000AF78607B685B691B78184662
:1028F00005F080FF034618460837BD4680BD00BF7F
:1029000080B582B000AF78607868FFF72BFB7868FD
:102910000DF0A0FF7B6818460837BD4680BD00BF9C
:1029200080B582B000AF78607B681B681C3B1B6879
:102930001A467B6813441846FFF7E2FF0346184621
:102940000837BD4680BD00BF80B483B000AF78605B
:102950007B68044A1A607B6818460C37BD465DF8F0
:10296000047B704750C5020880B483B000AF786024
:1029700039603B681A687B681A607B681B68283B73
:102980001B681A467B6813443A6852681A607B6871
:1029900018460C37BD465DF8047B704780B582B0A1
:1029A00000AF786039607B681846FFF7CDFF7B6821
:1029B0000F4A18461146FFF7D7FF0E4A7B681A6088
:1029C00000227B6813440B4A1A6000227B68134480
:1029D000084A1A607B683A685A607B680833184670
:1029E00039680CF087FE7B6818460837BD4680BD05
:1029F000ECC40208B4C4020880B483B000AF7860AD
:102A00007B68083318460C37BD465DF8047B704779
:102A100080B582B000AF78607B681B682C3B1B6878
:102A20001A467B6813441846FFF7E6FF034618462C
:102A30000837BD4680BD00BF80B582B000AF78606A
:102A40007B685B681B6808331B687A6852681046AD
:102A50009847034618460837BD4680BD80B582B00A
:102A600000AF78607B681B68143B1B681A467B6864
:102A700013441846FFF7E0FF034618460837BD46E3
:102A800080BD00BF80B582B000AF78607B685B68B6
:102A90001B680C331B687A685268104698470346D7
:102AA00018460837BD4680BD80B582B000AF78605B
:102AB0007B681B68183B1B681A467B6813441846E2
:102AC000FFF7E0FF034618460837BD4680BD00BF4C
:102AD00080B582B000AF78607B685B681B6810339C
:102AE0001B687A68526810469847034618460837AC
:102AF000BD4680BD80B582B000AF78607B681B6842
:102B00001C3B1B681A467B6813441846FFF7E0FF1E
:102B1000034618460837BD4680BD00BF80B582B069
:102B200000AF78607B685B681B6814331B687A6849
:102B3000526810469847034618460837BD4680BD80
:102B400080B582B000AF78607B681B68203B1B6853
:102B50001A467B6813441846FFF7E0FF0346184601
:102B60000837BD4680BD00BF80B582B000AF786039
:102B70007B685B681B6804331B687A685268104680
:102B800098470837BD4680BD80B582B000AF7860F9
:102B90007B681B68303B1B681A467B6813441846E9
:102BA000FFF7E2FF0837BD4680BD00BF80B582B0A9
:102BB00000AF78607B685B681B681B687A68526846
:102BC000104698470837BD4680BD00BF80B582B02B
:102BD00000AF78607B681B680C3B1B681A467B68FB
:102BE00013441846FFF7E2FF0837BD4680BD00BF1B
:102BF00080B582B000AF78607B685B681B68043387
:102C00001B687A685268104698470837BD4680BDF1
:102C100080B582B000AF78607B681B68103B1B6892
:102C20001A467B6813441846FFF7E2FF0837BD4693
:102C300080BD00BF80B483B000AF78607B68184669
:102C40000C37BD465DF8047B704700BF80B582B08D
:102C500000AF78607868FFF7EDFF024613461B6807
:102C6000343B1B68134418460837BD4680BD00BF7F
:102C700080B582B000AF78607B681B68243B1B681E
:102C80001A467B6813441846FFF7E0FF03461846D0
:102C90000837BD4680BD00BF80B582B000AF786008
:102CA0007B680833184642F210710CF04DFD08376E
:102CB000BD4680BD80B483B000AF78607B680433CC
:102CC00018460C37BD465DF8047B704780B582B06E
:102CD00000AF78607868FFF7EDFF024613461B6887
:102CE000583B1B68134418460837BD4680BD00BFDB
:102CF00080B582B000AF78607B681B68143B1B68AE
:102D00001A467B6813441846FFF7E0FF034618464F
:102D10000837BD4680BD00BF80B483B000AF786087
:102D20007B68183318460C37BD465DF8047B704746
:102D300080B582B000AF78607868FFF7EDFF02469B
:102D400013461B68383B1B68134418460837BD46BA
:102D500080BD00BF80B582B000AF78607B681B6823
:102D6000183B1B681A467B6813441846FFF7E0FFC0
:102D7000034618460837BD4680BD00BF80B483B007
:102D800000AF78607B68203318460C37BD465DF88D
:102D9000047B704780B582B000AF78607868FFF739
:102DA000EDFF024613461B68383B1B681344184668
:102DB0000837BD4680BD00BF80B582B000AF7860E7
:102DC0007B681B681C3B1B681A467B6813441846CB
:102DD000FFF7E0FF034618460837BD4680BD00BF39
:102DE00080B483B000AF78607B68283318460C3716
:102DF000BD465DF8047B704780B582B000AF786057
:102E00007868FFF7EDFF024613461B68383B1B68E6
:102E1000134418460837BD4680BD00BF80B582B058
:102E200000AF78607B681B68203B1B681A467B6894
:102E300013441846FFF7E0FF034618460837BD461F
:102E400080BD00BF80B483B000AF78607B6834334E
:102E500018460C37BD465DF8047B704780B582B0DC
:102E600000AF78607868FFF7EDFF024613461B68F5
:102E7000343B1B68134418460837BD4680BD00BF6D
:102E800080B582B000AF78607B681B68243B1B680C
:102E90001A467B6813441846FFF7E0FF03461846BE
:102EA0000837BD4680BD00BF80B483B000AF7860F6
:102EB0007B684C3318460C37BD465DF8047B704781
:102EC00080B582B000AF78607B681B682C3B1B68C4
:102ED0001A467B6813441846FFF7E6FF0346184678
:102EE0000837BD4680BD00BF80B483B000AF7860B6
:102EF0007B684C3318460C37BD465DF8047B704741
:102F000080B582B000AF78607868FFF7EDFF0246C9
:102F100013461B682C3B1B68134418460837BD46F4
:102F200080BD00BF80B582B000AF78607B681B6851
:102F30002C3B1B681A467B6813441846FFF7E0FFDA
:102F4000034618460837BD4680BD00BF80B584B033
:102F500000AFF860B9601346FB71BB681A68FB6884
:102F60001A60FB681B68283B1B681A46FB68134401
:102F7000BA6852681A60FB68181DFA792749134627
:102F80005B0013445B000B449B78194601F016F874
:102F9000FB6803F11800FA79204913465B001344DB
:102FA0005B000B44DB78194600F0F8FCFB6803F18A
:102FB0002000FA79194913465B0013445B000B4467
:102FC0001B79194600F0EAFCFB6803F12800FA7946
:102FD000124913465B0013445B000B445B791946AE
:102FE00000F0DCFCFB68FA7983F83020FB680022F3
:102FF00083F83120FB6803F13402FB681B68283B2F
:103000001B681946FB680B4410461946FFF7C6FCBF
:10301000FB6818461037BD4680BD00BF6CC502086E
:1030200080B582B000AF78607B6893F8303010488C
:103030001946FDF791FB7B680833184600F02AFC1F
:103040007B681833184600F019FC7B68203318465B
:1030500000F014FC7B682833184600F00FFC7B68F6
:103060001B681B68786898470837BD4680BD00BF5D
:10307000F0BF020880B483B000AF78607B680022A4
:1030800083F831200C37BD465DF8047B704700BFE4
:1030900080B582B000AF78607B681B6834331B68F2
:1030A000786898477B6893F83130012B00D10DE0A8
:1030B0007B682033184600F0E1FB7B682833184614
:1030C00000F0DCFB7B68012283F831200837BD4625
:1030D00080BD00BF80B582B000AF78607B681B68A0
:1030E00034331B68786898477B6893F83130042B39
:1030F00000D112E07B682033184600F0BFFB7B68EC
:103100002833184600F0BAFB7B6834331846FFF7C3
:10311000C3FD7B68042283F831200837BD4680BD9B
:1031200080B582B000AF78600B46FB707B681846B4
:10313000FFF70AFC7A680949FB7810461A46FFF740
:1031400005FF074A7B681A6000227B681344044A23
:103150001A607B6818460837BD4680BD14C4020853
:10316000D8C3020880B582B000AF78600B46FB7010
:103170007B681846FFF7E8FB7B686433154A1846FE
:103180001146FFF7F1FB7A681349FB7810461A469F
:10319000FFF7DCFE114A7B681A6000227B6813444B
:1031A0000E4A1A6064227B6813440D4A1A607B68D9
:1031B00003F14C00FA780B4913465B0013445B00A3
:1031C0000B445B78194600F027F97B6818460837EE
:1031D000BD4680BDB4C20208A4C202080CC20208E7
:1031E0007CC202086CC5020880B582B000AF78606E
:1031F0007B681B6834331B68786898477B6893F852
:103200003130022B00D10AE07B684C33184642F281
:10321000107100F035F97B68022283F831200837FD
:10322000BD4680BD80B582B000AF78607B681B680A
:10323000303B1B681A467B6813441846FFF7D4FFDF
:103240000837BD4680BD00BF80B582B000AF786052
:103250007B6893F83130022B04D17B684C331846DD
:1032600000F01EF97B68002283F831200837BD4644
:1032700080BD00BF80B483B000AF786039603B6828
:103280001A687B681A607B681B68283B1B681A46B3
:103290007B6813443A6852681A607B6818460C379A
:1032A000BD465DF8047B704780B582B000AF7860A2
:1032B0000B46FB707B681846FFF746FB7B68643360
:1032C000154A18461146FFF7D5FF7A681349FB786F
:1032D00010461A46FFF73AFE114A7B681A60002230
:1032E0007B6813440E4A1A6064227B6813440D4ABB
:1032F0001A607B6803F14C00FA780B4913465B00B7
:1033000013445B000B441B781946FFF70FFA7B68E8
:1033100018460837BD4680BDE4C00208D4C0020884
:103320003CC00208ACC002086CC5020880B582B07F
:1033300000AF78607B681B6834331B687A6810467E
:1033400098477B6893F83130032B00D10CE07B6801
:103350004C3318464FF4613100220023FFF734FA52
:103360007B68032283F831200837BD4680BD00BF4B
:1033700080B582B000AF78607B681B68303B1B680B
:103380001A467B6813441846FFF7D0FF0837BD463E
:1033900080BD00BF80B582B000AF0346FB71FB79F2
:1033A000042B1DD801A252F823F000BFE13301081D
:1033B000C1330108C9330108D1330108D9330108E9
:1033C0000948FDF7C9F90BE00848FDF7C5F907E022
:1033D0000748FDF7C1F903E00648FDF7BDF900BF56
:1033E0000837BD4680BD00BF90C502089CC50208D5
:1033F000A8C50208B4C5020880B483B000AF7860E5
:103400007B68044A1A607B6818460C37BD465DF835
:10341000047B7047E8C5020880B582B000AF7860D1
:103420000B46FB707B681846FFF7E6FF7B68124A85
:103430001A607B68191DFB78104ADB0013441B7966
:103440000846194600F0AAFA7B6803F10C01FB78E4
:103450000A4ADB0013445B790846194600F09EFADD
:10346000FB78064A52F833207B685A617B6818461D
:103470000837BD4680BD00BFD0C50208F8C50208A8
:1034800080B582B000AF786039607B685B69DBB281
:103490001846396802F0C0FF0837BD4680BD00BF3E
:1034A00080B582B000AF78607B685B69DBB218469C
:1034B00003F02AF80837BD4680BD00BF80B582B052
:1034C00000AF786039607B685B69DBB218463968A9
:1034D00003F068F80837BD4680BD00BF80B586B0F0
:1034E00000AFF8607A603B600B46FB72FB685B697B
:1034F000DAB2FB7A104619467A683B6803F082F824
:103500000346FB75FB7D1846FFF744FFFB7D002B50
:103510000CBF01230023DBB218461837BD4680BD1F
:1035200080B586B000AFF8607A603B600B46FB72F6
:10353000FB685B69DAB2FB7A104619467A683B6829
:1035400003F096F80346FB75FB7D1846FFF722FF54
:10355000FB7D002B0CBF01230023DBB2184618377C
:10356000BD4680BD80B588B002AFF8607A603B6030
:103570000B46FB72FB685B69D9B2FA7A3B6A00932F
:103580007B6A0193084611467A683B6803F0A8F805
:103590000346FB75FB7D1846FFF7FCFEFB7D002B09
:1035A0000CBF01230023DBB218461837BD4680BD8F
:1035B00080B483B000AF78607B68044A1A607B688F
:1035C00018460C37BD465DF8047B704740C60208BC
:1035D00080B582B000AF78600B46FB707B68184600
:1035E000FFF7E6FF1B4A7B681A6000227B681344E2
:1035F000184A1A607B68191DFB78174A9B00134410
:103600005B780846194600F0C9F97B6803F10C01A4
:10361000FB78114A9B0013449B780846194600F03A
:1036200013FC7B6803F11801FB780B4A9B001344E1
:10363000DB780846194600F007FCFB78064A12F8CA
:1036400023301A467B685A627B6818460837BD46A5
:1036500080BD00BF28C602084CC6020880B582B0F3
:1036600000AF78607B685B6ADBB2184600213822C5
:1036700003F050FF786800F041F80837BD4680BD80
:1036800080B584B000AFF860B9607A60FB685B6AAF
:10369000DBB21846B96800227B6804F0D3F8012336
:1036A00018461037BD4680BD80B584B000AFF860C5
:1036B000B9607A60FB685B6ADBB21846FF21BA68C2
:1036C0007B6804F0BFF8012318461037BD4680BD63
:1036D00080B584B000AFF860B9607A603B60FB6889
:1036E0005B6ADBB21846B9687A683B6804F0AAF8EE
:1036F000012318461037BD4680BD00BF80B582B09B
:1037000000AF78607B685B6ADBB2184604F03CF877
:103710000837BD4680BD00BF80B582B000AF78607D
:103720004FF40E70FCF778FF02467B681A607B68E6
:103730001B6800221A70342002F08AFA342002F04A
:10374000E3FB342002F014FC342002F09DFC342012
:10375000012102F053FD7B6818460837BD4680BD45
:1037600080B582B000AF78607B681B681846FCF7B4
:103770005FFF7B6818460837BD4680BD80B400AF48
:10378000BD465DF8047B704790B589B000AFF86026
:10379000B9607A60FB681B6848331C6807F1100346
:1037A0001846084900F0CEFC07F11003F868B96824
:1037B0007A68A04707F110031846FEF7F5FA243798
:1037C000BD4690BD7D37010890B585B000AFF8606B
:1037D000B9607A603B60FB681B6848331C68F86816
:1037E000B9687A683B68A0471437BD4690BD00BFF2
:1037F00090B58BB000AFF860B9607A603B60FB6851
:103800001B6848331C6807F120023B4610461946E6
:1038100007F1380200F0DAFC07F1100207F120038B
:103820001046194600F0BEFD07F11003F868B968AC
:103830007A68A04707F110031846FEF7B5FA2C374F
:10384000BD4690BD90B585B000AFF860B9607A60B4
:10385000FB681B6848331C68F868B96800227B68FD
:10386000A0471437BD4690BD80B483B000AF7860E8
:103870000C37BD465DF8047B704700BF80B582B051
:1038800000AF78607B681B79184602F0E1F90837D1
:10389000BD4680BD90B589B000AF78607B681B687D
:1038A0005C3B1B681A467B6813441C7907F10C03C8
:1038B000184600F0ADFD07F10C03204601211A4621
:1038C00002F00AF807F10C031846FEF76DFA7B6860
:1038D0001B685C3B1B681A467B6813441B791846BF
:1038E000012102F039FA7B681B685C3B1B681A46B1
:1038F0007B6813441B79184602F0CEFA7B681B687C
:103900005C3B1B681A467B6813441B79184602F01F
:103910009FF92437BD4690BD80B582B000AF786076
:103920007B681B683C3B1B681A467B68134418463F
:10393000FFF7B0FF0837BD4680BD00BF80B483B03D
:1039400000AF78607B68044A1A607B6818460C37C1
:10395000BD465DF8047B7047F0D4020880B485B0A2
:1039600000AFF860B9601346FB71BB681A68FB686A
:103970001A60FB681B68383B1B681A46FB681344D7
:10398000BA6852681A60FB68FA791A71FB681846BF
:103990001437BD465DF8047B704700BF80B582B028
:1039A00000AF78600B46FB707B681846FFF7C6FFD8
:1039B000074A7B681A6000227B681344044A1A6035
:1039C0007B68FA781A717B6818460837BD4680BD57
:1039D000B8D4020880B582B000AF78607B681B79EC
:1039E000184602F091FA7B681B79184602F0C0FA7B
:1039F0007B681B79184602F047FB0837BD4680BD3F
:103A000080B582B000AF78607B681B79184602F001
:103A10000DFB7B681B79184602F036FB0837BD4664
:103A200080BD00BF80B582B000AF78607B681B7935
:103A3000184602F0FBFA7B681B79184602F052FB2D
:103A40000837BD4680BD00BF80B582B000AF78604A
:103A50007B681B79184602F0E9FA7B681B791846E7
:103A600002F074FB0837BD4680BD00BF80B582B050
:103A700000AF78607B681B79184602F045FA7B68D6
:103A80001B79184602F0A0FA7B681B79184602F0F1
:103A9000FBFA0837BD4680BD80B582B000AF7860C4
:103AA0007B681B79184602F02FFA7B681B79184651
:103AB00002F08AFA7B681B79184602F013FB08377C
:103AC000BD4680BD80B582B000AF78607B681B7951
:103AD000184602F019FA7B681B79184602F074FA4E
:103AE0007B681B79184602F031FB0837BD4680BD64
:103AF00080B582B000AF78607B681B79184602F011
:103B000059FB034618460837BD4680BD80B582B0D4
:103B100000AF78600B46FB707B681A79FB78104623
:103B2000194602F06BFB0837BD4680BD80B582B0F8
:103B300000AF78607B681B79184602F095FB083768
:103B4000BD4680BD80B582B000AF78607B681B68E1
:103B50002C331B68786898470837BD4680BD00BF86
:103B600080B483B000AF786039603B681A687B68C6
:103B70001A607B681B68383B1B681A467B681344D5
:103B80003A6852681A607B6818460C37BD465DF883
:103B9000047B704780B485B000AFF860B96013460D
:103BA000FB71BB681A68FB681A60FB681B685C3BAA
:103BB0001B681A46FB681344BA6852681A60FB68AF
:103BC0001B68383B1B681A46FB681344BA68926846
:103BD0001A60FB681B68603B1B681A46FB6813444D
:103BE000BA68D2681A60FB6818461437BD465DF89B
:103BF000047B704780B582B000AF78600B46FB70E5
:103C00007B6804331846FFF799FE7B681A1D11493B
:103C1000FB7810461A46FFF7A1FE7B680E4A18464D
:103C20001146FFF79DFF0D4A7B681A6004227B68EE
:103C300013440B4A1A6004227B681344084A1A6032
:103C400000227B681344054A1A607B6818460837CF
:103C5000BD4680BD20D3020828D3020850D20208F6
:103C6000DCD2020880B582B000AF78607B681B6848
:103C70005C3B1B681A467B6813441B79184602F0AC
:103C80000BF90837BD4680BD80B584B000AFF86041
:103C9000B9607A603B60FB681B685C3B1B681A4636
:103CA000FB6813441B79184602F0F6F8FB681B68A2
:103CB0005C3B1B681A46FB6813441A797B68002B2F
:103CC00001D1012300E00223104619463A6801F0B1
:103CD00003FEFB681B6840331B68F868B9689847A7
:103CE000FB681B685C3B1B681A46FB6813441B7926
:103CF000184602F0E9F8FB681B6844331B68F86853
:103D0000002198471037BD4680BD00BF80B582B006
:103D100000AF786039603B68012B04D0022B1CD0C7
:103D2000002B0DD026E07B681B685C3B1B681A46A5
:103D30007B6813441B791846002102F00DF819E046
:103D40007B681B685C3B1B681A467B6813441B79C5
:103D50001846012102F000F80CE07B681B685C3B10
:103D60001B681A467B6813441B791846022101F030
:103D7000F3FF00BF0837BD4680BD00BF80B582B0ED
:103D800000AF786039607B681B685C3B1B681A4633
:103D90007B6813441B791846396801F053FD0346CC
:103DA000002B14BF01230023DBB218460837BD46A1
:103DB00080BD00BF80B483B000AF786039603B68DD
:103DC0001A687B681A607B681B68383B1B681A4658
:103DD0007B6813443A6852681A607B6818460C374F
:103DE000BD465DF8047B704780B485B000AFF860D5
:103DF000B9601346FB71BB681A68FB681A60FB6800
:103E00001B684C3B1B681A46FB681344BA6852682F
:103E10001A60FB681B68383B1B681A46FB68134432
:103E2000BA6892681A60FB681B68503B1B681A46A8
:103E3000FB681344BA68D2681A60FB6818461437E6
:103E4000BD465DF8047B704780B582B000AF7860F6
:103E50000B46FB707B6804331846FFF76FFD7B68E9
:103E60001A1D1149FB7810461A46FFF777FD7B684B
:103E70000E4A18461146FFF79DFF0D4A7B681A60EF
:103E800004227B6813440B4A1A6004227B681344A3
:103E9000084A1A6000227B681344054A1A607B684E
:103EA00018460837BD4680BDA0D00208A8D0020839
:103EB000E8CF020860D0020880B582B000AF786019
:103EC0007B681B684C3B1B681A467B6813441B7954
:103ED000184601F061FB0837BD4680BD80B582B051
:103EE00000AF78607B681B684C3B1B681A467B6898
:103EF00013441B79184601F0ABFE0837BD4680BD60
:103F000080B582B000AF78607B681B6838331B686F
:103F10007868984703465B0007EE903AF8EEE77A38
:103F20009FED047AC7EE877AB0EE670A0837BD4680
:103F300080BD00BF00801D4580B582B000AF7860B5
:103F40007B681B684C3B1B681A467B6813441B79D3
:103F5000184601F02BFB034618460837BD4680BDC6
:103F600080B483B000AF786039603B681A687B68C2
:103F70001A607B681B685C3B1B681A467B681344AD
:103F80003A6852681A607B681B68383B1B681A469F
:103F90007B6813443A6892681A607B681B68603BD0
:103FA0001B681A467B6813443A68D2681A607B68BB
:103FB00018460C37BD465DF8047B704780B582B06B
:103FC00000AF78600B46FB707B6808331846FFF73C
:103FD000B5FC7B6803F108022649FB7810461A46B7
:103FE000FFF7BCFC7B68244A18461146FFF7E2FE47
:103FF0007B680433214A18461146FFF7B1FD7B6800
:1040000010331F4A18461146FFF7AAFF7A681D4968
:10401000FB7810461A46FFF7E7FE7B681A1D1A491F
:10402000FB7810461A46FFF7B5FD184A7B681A6000
:1040300008227B681344164A1A6008227B681344DE
:10404000134A1A6000227B681344104A1A60114A0E
:104050007B685A6004227B6813440E4A1A6010225F
:104060007B6813440C4A1A607B6818460837BD46C3
:1040700080BD00BFF4C80208FCC8020804C90208D9
:104080000CC90208BCC80208CCC80208B0C60208A5
:10409000D8C702084CC7020868C8020880B582B0B9
:1040A00000AF78607B681B684C3B1B681A467B68D6
:1040B00013441B79184601F0EFFE7B681B684C3BEC
:1040C0001B681A467B6813441B79184601F064FA92
:1040D0000837BD4680BD00BF80B582B000AF7860B4
:1040E0007B681B684C3B1B681A467B6813441B7932
:1040F000184601F0D1FE7B681B684C3B1B681A46D2
:104100007B6813441B79184601F0A2FD0837BD46B1
:1041100080BD00BF80B483B000AF78607B68184674
:104120000C37BD465DF8047B704700BF80B483B098
:1041300000AF78607B6818460C37BD465DF8047B9D
:10414000704700BF90B583B000AF78603960786881
:10415000FFF7E0FF7B681846FCF78CF93B461846F2
:1041600000F082F90346002B0FD07C683B461846CE
:10417000FFF7DCFF03462046194600F087F97B680D
:10418000044ADA607B68044A9A607B6818460C37F8
:10419000BD4690BDB1440108CD44010880B483B050
:1041A00000AF78607B6818460C37BD465DF8047B2D
:1041B000704700BF80B483B000AF78607B6818465A
:1041C0000C37BD465DF8047B704700BF90B585B0E5
:1041D00000AFF860B9607A60B868FFF7DFFF0346A8
:1041E000184600F09BF904467868FFF7E3FF0346A2
:1041F000F86821461A4600F0E5F9F8681437BD461C
:1042000090BD00BF80B483B000AF78607B68184673
:104210000C37BD465DF8047B704700BF80B483B0A7
:1042200000AF78607B6818460C37BD465DF8047BAC
:10423000704700BF80B483B000AF78607B681846D9
:104240000C37BD465DF8047B704700BF80B582B077
:1042500000AF78607868FFF7EDFF7B681846083795
:10426000BD4680BD80B483B000AF78607B681846DF
:104270000C37BD465DF8047B704700BF80B483B047
:1042800000AF78607B6818460C37BD465DF8047B4C
:10429000704700BF80B483B000AF78607B68184679
:1042A0000C37BD465DF8047B704700BF80B582B017
:1042B00000AF78607B681846FFF7ECFF03461846AE
:1042C0000837BD4680BD00BF80B582B000AF7860C2
:1042D00039603868FCF714FB03461A687B681A607B
:1042E0007B6818460837BD4680BD00BF90B583B0D7
:1042F00000AF786039603868FFF7B4FF03461846AE
:10430000FFF7BCFF7C683868FFF7D0FF034618460C
:10431000FCF7F6FA034620461946FFF7D5FF7B68FF
:1043200018460C37BD4690BD80B582B000AF7860AE
:1043300039607A683B6810461946FFF7D7FF7B68FB
:1043400018460837BD4680BD90B583B000AF786091
:1043500039607868FFF77AFF3B681846FFF752FF2D
:1043600003461A687B681A607B681C1D3B6804332F
:104370001846FFF753FF034620461946FFF7D4FFC0
:104380007B6818460C37BD4690BD00BF80B483B033
:1043900000AF78607B6818460C37BD465DF8047B3B
:1043A000704700BF90B583B000AF7860396078681F
:1043B000FFF7B0FE7B681846FCF75CF8386800F041
:1043C0001DF90346002B0ED07C683868FFF7DEFF2E
:1043D00003462046194600F01DF97B68044ADA605E
:1043E0007B68044A9A607B6818460C37BD4690BDCE
:1043F000394601085546010880B483B000AF7860A3
:104400007B6818460C37BD465DF8047B704700BFDB
:1044100090B583B000AF786039707868FFF77AFEA6
:104420007B681846FCF726F83B46184600F03AF938
:104430000346002B0FD07C683B461846FFF7DCFF95
:1044400003462046194600F039F97B68044ADA60D1
:104450007B68044A9A607B6818460C37BD4690BD5D
:10446000E1460108FD46010880B483B000AF7860E2
:104470007B681B68002B14BF01230023DBB21846A6
:104480000C37BD465DF8047B704700BF90B585B022
:1044900000AF786039603868FFF748FE03467868F7
:1044A0001946224600F052F91437BD4690BD00BFB0
:1044B00080B582B000AF7860786800F061F903469B
:1044C0001B6898470837BD4680BD00BFB0B586B0B1
:1044D00000AFF860B9601346FB71FB79022B0DD079
:1044E000032B11D0012B14D1F86800F05BF90446BE
:1044F000B86800F045F9034623600AE0F868B96837
:104500002A4600F05BF904E0F868214600F070F9F3
:1045100000BF002318461837BD46B0BD80B483B035
:1045200000AF78607B6818460C37BD465DF8047BA9
:10453000704700BF80B483B000AF78607B681846D6
:104540000C37BD465DF8047B704700BF80B582B074
:1045500000AF786039603868FFF72CFE03461A68B0
:104560007B681A607B6818460837BD4680BD00BF6F
:1045700090B583B000AF786039607868FFF7DAFFF4
:104580007C683868FFF716FE034620461946FFF799
:10459000DDFF7B6818460C37BD4690BD90B583B0F3
:1045A00000AF786039607C683868FFF703FE034627
:1045B00020461946FFF7DCFF7B6818460C37BD46DE
:1045C00090BD00BF90B585B000AFF860B9607A606B
:1045D000F868FFF73BFEBB681A68FB681A60FB6867
:1045E0001C1D7868FFF7E6FD034620461946FFF7D5
:1045F000D5FFFB6818461437BD4690BD80B483B024
:1046000000AF7860012318460C37BD465DF8047B87
:10461000704700BF90B585B000AF786039603868EA
:10462000FFF7B4FE034678681946224600F0ECF81E
:104630001437BD4690BD00BF80B582B000AF786032
:10464000786800F0FBF80346184600F007F90837D1
:10465000BD4680BDB0B586B000AFF860B960134606
:10466000FB71FB79022B0DD0032B11D0012B14D140
:10467000F86800F003F90446B86800F0DFF8034674
:1046800023600AE0F868B9682A4600F003F904E0FC
:10469000F868214600F01CF900BF002318461837BF
:1046A000BD46B0BD80B483B000AF7860012318462A
:1046B0000C37BD465DF8047B704700BF90B585B0F0
:1046C00000AF786039603868FFF796FE0346786877
:1046D0001946224600F00CF91437BD4690BD00BFC4
:1046E00080B582B000AF7860786800F017F90346B3
:1046F0001846FFF7B9F80837BD4680BDB0B586B09B
:1047000000AFF860B9601346FB71FB79022B0DD046
:10471000032B11D0012B14D1F86800F00FF90446D7
:10472000B86800F0FBF8034623600AE0F868B9684F
:104730002A4600F00FF904E0F868214600F020F95D
:1047400000BF002318461837BD46B0BD90B585B0F0
:1047500000AFF860B9603A71B868FFF7E7FC03464C
:104760001C68F868FBF76EFE034604201946FBF749
:104770005DFE0346002B00D01C601437BD4690BD83
:1047800080B584B000AF7860786800F009F903461E
:10479000184600F011F9F860FB6818461037BD465E
:1047A00080BD00BF80B582B000AF78607868FBF74D
:1047B00049FE034618460837BD4680BD90B585B012
:1047C00000AFF860B9603A71B86800F0E9F80346E4
:1047D0001C68F868FBF736FE034604201946FBF711
:1047E00025FE0346002B00D01C601437BD4690BD4B
:1047F00080B582B000AF78603970786800F0E8F872
:104800000837BD4680BD00BFB0B584B000AFF860CA
:10481000B9603A71B868FFF7B9FD054608200CF099
:104820001BF8044620462946FFF78EFDF86800F085
:1048300025F803461C601037BD46B0BD80B584B076
:1048400000AF7860786800F0CFF803461B68FB6023
:10485000FB6818461037BD4680BD00BF90B585B0D7
:1048600000AF786000F0CCF807F1080378681946CB
:10487000224600F0E7F81437BD4690BD80B582B0FF
:1048800000AF78607868FBF7DDFD0346184608370F
:10489000BD4680BDB0B584B000AFF860B9603A7174
:1048A000B86800F0A1F803461D6808200BF0D4FF9B
:1048B000044623462A4692E8030083E80300F8688A
:1048C000FFF7DCFF03461C601037BD46B0BD00BFDC
:1048D00080B582B000AF786039707868FFF7CEFF9E
:1048E00003461B6818460BF0B5FF0837BD4680BD70
:1048F00090B585B000AFF860B9603A71B868FFF75D
:104900007BFD01200BF0A8FF0446F86800F016F8C4
:1049100003461C601437BD4690BD00BF80B584B00F
:1049200000AF7860786800F0A9F803461B68FB6068
:10493000FB6818461037BD4680BD00BF80B582B009
:1049400000AF78607868FBF77DFD034618460837AE
:10495000BD4680BD90B585B000AFF860B9603A71D2
:10496000B86800F08BF801200BF076FF0446F86879
:10497000FFF7E4FF03461C601437BD4690BD00BF3F
:1049800080B582B000AF786039707868FFF7D6FFE5
:1049900003461B6818460BF05DFF0837BD4680BD17
:1049A00080B582B000AF78607868FBF757FD0346AA
:1049B00018460837BD4680BD80B483B000AF78602C
:1049C0007B6818460C37BD465DF8047B704700BF16
:1049D00080B582B000AF78607868FBF733FD03469E
:1049E00018460837BD4680BD80B582B000AF7860FC
:1049F0007868FBF733FD034618460837BD4680BD8F
:104A000080B400AF1846BD465DF8047B704700BF18
:104A100080B582B000AF78607868FFF747FC034646
:104A200018460837BD4680BD80B582B000AF7860BB
:104A30007B681846FFF7ECFF034618460837BD466B
:104A400080BD00BF90B587B000AFF860B9603A7123
:104A5000FB681C68FB6804331846FFF7E5FF024655
:104A600007F1140318461146BA6800F013F803461C
:104A70001B681846A0471C37BD4690BD80B582B064
:104A800000AF78607868FBF7E9FC03461846083702
:104A9000BD4680BD80B584B000AFF860B9607A6073
:104AA000B868FFF787FB034618461037BD4680BD40
:104AB00080B584B000AF78607B68FB60F8680AF06E
:104AC0008BFAB860BB6804331846FFF711F8034649
:104AD00083F00103DBB2002B05D0BB680C33184612
:104AE00000F0D4F804E0BB681C33184600F0CEF8A0
:104AF0001037BD4680BD00BF80B582B000AF786082
:104B00000B46FB707968FB780C4A52F82330DBB215
:104B100008461946FFF76EF87B680C3318460021EB
:104B200000F0CAF87B681C331846002100F0C4F876
:104B30007B6818460837BD4680BD00BF4004002092
:104B4000B0B586B002AF78600023FB607B681B685D
:104B5000DD6A09F057F9024607F10C0400230093BF
:104B600028460621234609F089FFFB68002B03D065
:104B7000034B4FF080521A601037BD46B0BD00BFE6
:104B800004ED00E090B589B002AF78607B6818460C
:104B9000FEF780FE7B6804331846FEF731FF0A20DB
:104BA00004F0C4FF0246224B009322481146002223
:104BB0007B6809F025FF02467B68DA627B681C335C
:104BC000184600F08BF8034683F00103DBB2002B9C
:104BD00005D07B681C331846174900F09BF87B68AA
:104BE0000C33184600F07AF8034683F00103DBB279
:104BF000002B05D07B680C3318460F4900F08AF86B
:104C00007C687B6807F108021046194600F0AEF890
:104C100007F10803204602211A46FEF713FE07F1AA
:104C200008031846FDF7C0F81C37BD4690BD00BF0D
:104C3000B14A01081CD502087D37010880B582B051
:104C400000AF78600B46FB707968FB78064A52F833
:104C50002330DBB208461946FEF7A0FE7B681846F3
:104C60000837BD4680BD00BF4004002080B582B03B
:104C700000AF78607B681846FEF700FE7B68184638
:104C8000FEF7BEFE0837BD4680BD00BF80B582B0CE
:104C900000AF78607B681846FCF79CF80346002B51
:104CA00001D00BF075FF7B68DB687A681046984787
:104CB0000837BD4680BD00BF80B582B000AF7860C8
:104CC00039607868FFF726FA7B681846FBF7D2FB55
:104CD0007B6818460837BD4680BD00BF80B582B0EE
:104CE00000AF78607B681846FCF774F8034683F0E1
:104CF0000103DBB218460837BD4680BD80B483B0DF
:104D000000AF78607B6818460C37BD465DF8047BC1
:104D1000704700BF80B586B000AF786039603868F2
:104D2000FFF7ECFF024607F1080318461146FFF7AC
:104D300009FA07F108031846796800F043F807F10B
:104D400008031846FDF730F87B6818461837BD464B
:104D500080BD00BF80B483B000AF78607B68184628
:104D60000C37BD465DF8047B704700BF90B583B03B
:104D700000AF786039607868FFF7CCF97B68184637
:104D8000FBF778FB3B46184600F03CF80346002B47
:104D90000FD07C683B461846FFF7DCFF03462046F1
:104DA000194600F03BF87B68044ADA607B68044AE5
:104DB0009A607B6818460C37BD4690BD414E01088D
:104DC0005D4E010880B582B000AF786039607A68C6
:104DD0003B6810461946FBF755FE7B6803F1080255
:104DE0003B68083310461946FBF77EFE7B6803F1EB
:104DF0000C023B680C331046194600F063F8083784
:104E0000BD4680BD80B483B000AF786001231846F2
:104E10000C37BD465DF8047B704700BF90B585B088
:104E200000AF786039603868FFF794FF0346786810
:104E30001946224600F064F81437BD4690BD00BF05
:104E400080B582B000AF7860786800F071F80346F2
:104E50001846FFF775FE0837BD4680BDB0B586B071
:104E600000AFF860B9601346FB71FB79022B0DD0DF
:104E7000032B11D0012B14D1F86800F069F8044617
:104E8000B86800F055F8034623600AE0F868B9688E
:104E90002A4600F069F804E0F868214600F07EF840
:104EA00000BF002318461837BD46B0BD80B483B09C
:104EB00000AF78607B6818460C37BD465DF8047B10
:104EC000704700BF80B584B000AF78603960786803
:104ED000FFF7ECFF03461B68FB603868FFF7E6FF4F
:104EE00003461A687B681A6007F10C031846FFF73F
:104EF000DDFF03461A683B681A601037BD4680BD67
:104F0000B0B584B000AFF860B9603A71B868FFF727
:104F100021FF054604200BF09FFC04462B6823600C
:104F2000F86800F015F803461C601037BD46B0BDA8
:104F300080B584B000AF7860786800F03FF8034631
:104F40001B68FB60FB6818461037BD4680BD00BF7C
:104F500080B582B000AF78607868FBF773FA0346DB
:104F600018460837BD4680BDB0B584B000AFF860C4
:104F7000B9603A71B86800F021F803461D68042052
:104F80000BF06AFC04462B682360F868FFF7E0FF2B
:104F900003461C601037BD46B0BD00BF80B582B06F
:104FA00000AF786039707868FFF7D2FF03461B685E
:104FB00018460BF04FFC0837BD4680BD80B582B067
:104FC00000AF78607868FBF749FA0346184608375F
:104FD000BD4680BD80B582B000AF78607B68184662
:104FE000012104F0A3FC7B68034A1A607B68184621
:104FF0000837BD4680BD00BF60D5020880B582B0CD
:1050000000AF78607B68084A1A607B68184604F035
:10501000CBFC0023002B02D078680BF01BFC7B68D4
:1050200018460837BD4680BD60D5020880B582B0FD
:1050300000AF78607868FFF7E1FF78680BF00AFC52
:105040007B6818460837BD4680BD00BF80B582B07A
:1050500000AF786039607B6818460AF083F97B6896
:10506000044A1A607B683A681A617B6818460837F8
:10507000BD4680BD48D5020880B582B000AF7860DB
:105080000B467B8006497B681B695A1E7B88084655
:1050900011461A4600F09AF80837BD4680BD00BF99
:1050A000780E002080B582B000AF78600B467B8020
:1050B000044A7B881046194600F0A4F80837BD461C
:1050C00080BD00BF780E002080B582B000AF786050
:1050D0007B6818460121FFF7B9FF7B681433184637
:1050E0000221FFF7B3FF7B68283318460321FFF73F
:1050F000ADFF7B683C3318460421FFF7A7FF7B68B0
:10510000503318460521FFF7A1FF7B68643318462A
:105110000621FFF79BFF7B6818460837BD4680BD18
:1051200080B582B000AF2248FBF716FB2148FEF79E
:10513000A5FB2148FEF7A2FB1E48FEF74BFC1E48CC
:10514000FEF748FC1D48FEF799FB1D48FEF796FB4D
:105150001A48FEF73FFC1B48FEF7AEFE00237B60BB
:105160001FE0194A7B6813441B783B603B68DBB245
:105170001846002101F0BEFE3B68DBB21846002154
:1051800002F020F83B68DBB2184644F6206101F0DB
:10519000DBFF3B68DBB2184602F074F87B68013332
:1051A0007B607B68052BDCDD0837BD4680BD00BF1A
:1051B00020D50208440F00204C0F0020540F00207F
:1051C000600F00205C0F00204C04002080B586B0EA
:1051D00000AFF860B9601346FB80BB68052B00DDAB
:1051E0000BE0074ABB6813441B787B617B69DAB22A
:1051F000FB881046194601F043FF1837BD4680BDB5
:105200004C04002080B584B000AF78600B467B80F2
:105210000023FB600EE00A4AFB6813441B78BB6066
:10522000BB68DAB27B881046194601F08DFFFB6837
:105230000133FB60FB68052BEDDD1037BD4680BDFB
:105240004C04002080B582B000AF786039607B6884
:10525000012B1CD13B684FF6FF72934217D10D48CA
:10526000FFF7B8FE0B480C490C4A0BF0EDFA0C485E
:105270005921FEF793FB0B485A21FEF78FFB0A4892
:105280005721FEF78BFB09485821FEF7DDFD083753
:10529000BD4680BD380F0020FD4F010800000020F2
:1052A000440F00204C0F0020540F00205C0F002002
:1052B00080B500AF01204FF6FF71FFF7C3FF80BD3F
:1052C00080B500AFFBF7E4FA80BD00BF80B500AF4A
:1052D000FBF7D2FA80BD00BF0FB480B582B000AF3B
:1052E00007F114037B603869796800F009F8034618
:1052F00018460837BD46BDE8804004B0704700BF7F
:1053000080B582B000AF7860396078683968FBF7A3
:105310000BFA034618460837BD4680BD0FB480B56A
:1053200082B000AF07F114037B6038697968FBF73E
:1053300027FA034618460837BD46BDE8804004B04A
:10534000704700BF80B582B000AF78607868FBF727
:1053500079FA0837BD4680BD90B583B000AF78605C
:105360003960084B1B681B681C68064B1B68184695
:1053700079683A684FF0FF33A047034618460C3768
:10538000BD4690BD3804002090B583B000AF786072
:105390003960094B1B681B6804331C68064B1B688B
:1053A000184679683A684FF0FF33A047034618461D
:1053B0000C37BD4690BD00BF380400200FB480B547
:1053C00082B000AF07F114037B6038697968FBF79E
:1053D00011FA034618460837BD46BDE8804004B0C0
:1053E000704700BF80B582B000AF78607B684FF433
:1053F0007A7202FB03F3184600F004F80837BD4642
:1054000080BD00BF80B485B000AF78607A68134675
:10541000DB0013445B00FB6000E000BFFB68013B66
:10542000FB60002B14BF01230023DBB2002BF4D15F
:105430001437BD465DF8047B704700BF80B582B06D
:1054400000AF7860786804F089FD0837BD4680BDFC
:1054500080B582B000AF7860786804F08DFD0837C1
:10546000BD4680BD80B58EB000AF00237B6384E075
:105470007B6BDB00444A13443B637B6BDB00434A9A
:105480001344FB6201200021032207F08FFC024637
:10549000FB6A1A60FB6A1B68002B06D13C483D4939
:1054A0004022FFF78BFFFFF70BFFFB6A1B681846D4
:1054B00000210022002307F00FFF012007F0C2FCAB
:1054C0000246FB6A5A60FB6A5B68002B06D13048D3
:1054D00030494422FFF772FFFFF7F2FEFB6A5B6878
:1054E000184600210022002307F0AAFD3B6B1B6831
:1054F0001846012106F098F800237B600023BB606A
:105500000023FB604FF470633B613B1D184604F0C1
:10551000C1FE00237B6100233B7600237B760023C2
:10552000FB6100233B6200237B62012387F8283064
:105530003B6B5A6807F114031046194604F056FEF7
:105540003B6B5B681846012104F0CCFE12233B70D4
:1055500007237B700023BB700123FB703B4618467A
:1055600004F0E4FD3B6B5B68184640F20521012224
:1055700004F0BCFF7B6B01337B637B6B022B7FF7FB
:1055800077AF3837BD4680BDA8D50208680F002028
:1055900070D5020880D5020880B483B000AF0346FE
:1055A000FB710C37BD465DF8047B704780B588B051
:1055B00000AF0346FB71FB79184600F0B5FE0346C9
:1055C000FB7797F91F30B3F1FF3F06D135483649D5
:1055D0006A22FFF7F3FEFFF773FE97F91F30334A95
:1055E00032F81330BB813B7BDB00314A1344BB6193
:1055F0003B7BDB002F4A13447B617B7B3B617B69F8
:105600005B68184600210A22002307F065FE034666
:10561000002B14BF01230023DBB2002B3DD0FB790C
:105620001846022100F046FEBB695A683B69DBB2AE
:10563000104619460122072304F070FEBB695B681F
:10564000184604F035FF7B691B68184600214FF0AF
:10565000FF32002307F040FE0346012B0CBF01235D
:105660000023DBB2002B0ED07B695B68184600215B
:105670000022002307F0E4FCBB695B68184604F0D5
:1056800027FF03460AE07B695B6818460021002279
:10569000002307F0D5FC002300E000231846203744
:1056A000BD4680BD70D5020880D50208C0D502086D
:1056B000A8D50208680F002080B584B000AF002391
:1056C0003B600023FB6033E0FB68DB001B4A1344B4
:1056D000BB60FB68DB001A4A13447B60BB685B68F5
:1056E000184640F2052104F029FF0346002B14BFA1
:1056F00001230023DBB2002B17D07B681A683B46DE
:10570000104600211A46002307F06AFDBB685B685B
:10571000184640F2052104F03FFF3B68002B03D000
:10572000084B4FF080521A6005E0FB680133FB60C4
:10573000FB68022BC8DD1037BD4680BDA8D5020826
:10574000680F002004ED00E080B586B000AF1B4B71
:1057500000221A6000233B6000237B6000233B7221
:105760000023BB720023FB7400237B6108E007F178
:1057700008027B6913440022DA707B6901337B6184
:105780007B69072BF3DD3B460D4800211A4604F0E8
:1057900019FF0C4B1A683B4610461946074A00236E
:1057A00007F01EFD0346012B05D1044B1B68012B9E
:1057B00001D107F093F91837BD4680BD800F002056
:1057C00000640040DC1B002080B582B000AF786030
:1057D0007B6800221A607B680433184600F07AF96F
:1057E0007B6818460837BD4680BD00BF80B584B0D1
:1057F00000AF0346FB710023FB600EE0F9790E4A0F
:10580000FB6813441B784AB25BB29A4202D1FB6830
:10581000DBB20DE0FB680133FB60FB680F2BEDDDB5
:10582000064807492D22FAF7C3FFFBF731F8FF239B
:1058300018461037BD4680BD1CD60208E0D50208C8
:10584000F0D5020890B585B000AF03463960FB7112
:10585000FB791846FFF7CAFF0346FB60FB680F2B76
:1058600006DD194819493422FAF7A2FFFBF710F8B0
:10587000174AFB6813441B785BB2002B06DA124808
:1058800012493522FAF794FFFBF702F8FA6813463B
:105890009B0013449B000F4A1344BB60BB681C6809
:1058A000386804F043F90346204600211A460023D5
:1058B00007F012FD0346012B0CBF01230023DBB2CE
:1058C00018461437BD4690BDE0D50208F0D5020851
:1058D0001CD60208840F002080B584B000AF0346B8
:1058E0003A60FB710B46BB71FB791846FFF77EFFF0
:1058F0000346FB60FB680F2B06DD2E482E493D2238
:10590000FAF756FFFAF7C4FF2C4AFB6813441B78DA
:105910005BB2002B06DA274827493E22FAF748FFF8
:10592000FAF7B6FFFA6813469B0013449B00244A1B
:105930001344BB60BB6804331846396800F0DAF8DA
:10594000BB681B68002B07D0BB681B68184607F0B4
:105950002BFEBB6800221A60BB79012B02D0022B00
:1059600009D010E001200021032207F01FFA0246AF
:10597000BB681A6007E0FF20002107F025FB024604
:10598000BB681A6000BFBB681B68002B06D10948C2
:1059900009494F22FAF70CFFFAF77AFFBB681B6838
:1059A000184600210022002307F096FC1037BD4660
:1059B00080BD00BFE0D50208F0D502081CD6020861
:1059C000840F002080B584B000AF78607A681346F9
:1059D0009B0013449B00194A1344FB6001227B681F
:1059E00002FA03F3BB60B86805F048F90346002BE0
:1059F00014BF01230023DBB2002B1BD0FB68043350
:105A00001846FFF743F9FB681B68002B07D0FB68BB
:105A10001B68184600210A4A002307F0E1FBB8681A
:105A200005F050F9064B1B68002B03D0054B4FF0D7
:105A300080521A601037BD4680BD00BF840F002021
:105A4000C410002004ED00E080B500AF0020FFF797
:105A5000B9FF80BD80B500AF0120FFF7B3FF80BD67
:105A600080B500AF0220FFF7ADFF80BD80B500AF6D
:105A70000320FFF7A7FF80BD80B500AF0420FFF72C
:105A8000A1FF80BD80B500AF0520FFF79BFF06207A
:105A9000FFF798FF0720FFF795FF0820FFF792FF19
:105AA0000920FFF78FFF80BD80B500AF0A20FFF708
:105AB00089FF0B20FFF786FF0C20FFF783FF0D20E7
:105AC000FFF780FF0E20FFF77DFF0F20FFF77AFF23
:105AD00080BD00BF80B582B000AF78607868FEF707
